{
  "contractName": "ACME",
  "abi": [
    {
      "inputs": [
        {
          "internalType": "uint256",
          "name": "",
          "type": "uint256"
        }
      ],
      "name": "bets",
      "outputs": [
        {
          "internalType": "uint256",
          "name": "n_bets",
          "type": "uint256"
        }
      ],
      "stateMutability": "view",
      "type": "function",
      "constant": true
    },
    {
      "inputs": [
        {
          "internalType": "uint256",
          "name": "",
          "type": "uint256"
        }
      ],
      "name": "polls",
      "outputs": [
        {
          "internalType": "bool",
          "name": "open",
          "type": "bool"
        },
        {
          "internalType": "address",
          "name": "creator",
          "type": "address"
        },
        {
          "internalType": "uint256",
          "name": "initial_amount",
          "type": "uint256"
        },
        {
          "internalType": "string",
          "name": "question",
          "type": "string"
        },
        {
          "internalType": "uint256",
          "name": "time_start",
          "type": "uint256"
        },
        {
          "internalType": "uint256",
          "name": "time_end",
          "type": "uint256"
        }
      ],
      "stateMutability": "view",
      "type": "function",
      "constant": true
    },
    {
      "inputs": [
        {
          "internalType": "uint256",
          "name": "",
          "type": "uint256"
        }
      ],
      "name": "votes",
      "outputs": [
        {
          "internalType": "uint256",
          "name": "n_votes",
          "type": "uint256"
        }
      ],
      "stateMutability": "view",
      "type": "function",
      "constant": true
    },
    {
      "inputs": [
        {
          "internalType": "string",
          "name": "_question",
          "type": "string"
        },
        {
          "internalType": "uint256",
          "name": "_valid_period",
          "type": "uint256"
        }
      ],
      "name": "createPoll",
      "outputs": [
        {
          "components": [
            {
              "internalType": "bool",
              "name": "open",
              "type": "bool"
            },
            {
              "internalType": "address",
              "name": "creator",
              "type": "address"
            },
            {
              "internalType": "uint256",
              "name": "initial_amount",
              "type": "uint256"
            },
            {
              "internalType": "string",
              "name": "question",
              "type": "string"
            },
            {
              "internalType": "string[]",
              "name": "options",
              "type": "string[]"
            },
            {
              "internalType": "uint256",
              "name": "time_start",
              "type": "uint256"
            },
            {
              "internalType": "uint256",
              "name": "time_end",
              "type": "uint256"
            }
          ],
          "internalType": "struct ACME.Poll",
          "name": "",
          "type": "tuple"
        }
      ],
      "stateMutability": "payable",
      "type": "function",
      "payable": true
    },
    {
      "inputs": [
        {
          "internalType": "uint256",
          "name": "_id",
          "type": "uint256"
        }
      ],
      "name": "getPoll",
      "outputs": [
        {
          "components": [
            {
              "internalType": "bool",
              "name": "open",
              "type": "bool"
            },
            {
              "internalType": "address",
              "name": "creator",
              "type": "address"
            },
            {
              "internalType": "uint256",
              "name": "initial_amount",
              "type": "uint256"
            },
            {
              "internalType": "string",
              "name": "question",
              "type": "string"
            },
            {
              "internalType": "string[]",
              "name": "options",
              "type": "string[]"
            },
            {
              "internalType": "uint256",
              "name": "time_start",
              "type": "uint256"
            },
            {
              "internalType": "uint256",
              "name": "time_end",
              "type": "uint256"
            }
          ],
          "internalType": "struct ACME.Poll",
          "name": "",
          "type": "tuple"
        }
      ],
      "stateMutability": "view",
      "type": "function",
      "constant": true
    },
    {
      "inputs": [],
      "name": "getPolls",
      "outputs": [
        {
          "components": [
            {
              "internalType": "bool",
              "name": "open",
              "type": "bool"
            },
            {
              "internalType": "address",
              "name": "creator",
              "type": "address"
            },
            {
              "internalType": "uint256",
              "name": "initial_amount",
              "type": "uint256"
            },
            {
              "internalType": "string",
              "name": "question",
              "type": "string"
            },
            {
              "internalType": "string[]",
              "name": "options",
              "type": "string[]"
            },
            {
              "internalType": "uint256",
              "name": "time_start",
              "type": "uint256"
            },
            {
              "internalType": "uint256",
              "name": "time_end",
              "type": "uint256"
            }
          ],
          "internalType": "struct ACME.Poll[]",
          "name": "",
          "type": "tuple[]"
        }
      ],
      "stateMutability": "view",
      "type": "function",
      "constant": true
    },
    {
      "inputs": [
        {
          "internalType": "string",
          "name": "word",
          "type": "string"
        }
      ],
      "name": "searchPollsWithWord",
      "outputs": [
        {
          "components": [
            {
              "internalType": "bool",
              "name": "open",
              "type": "bool"
            },
            {
              "internalType": "address",
              "name": "creator",
              "type": "address"
            },
            {
              "internalType": "uint256",
              "name": "initial_amount",
              "type": "uint256"
            },
            {
              "internalType": "string",
              "name": "question",
              "type": "string"
            },
            {
              "internalType": "string[]",
              "name": "options",
              "type": "string[]"
            },
            {
              "internalType": "uint256",
              "name": "time_start",
              "type": "uint256"
            },
            {
              "internalType": "uint256",
              "name": "time_end",
              "type": "uint256"
            }
          ],
          "internalType": "struct ACME.Poll[]",
          "name": "",
          "type": "tuple[]"
        }
      ],
      "stateMutability": "view",
      "type": "function",
      "constant": true
    },
    {
      "inputs": [
        {
          "internalType": "uint256",
          "name": "_id",
          "type": "uint256"
        },
        {
          "internalType": "string",
          "name": "_option",
          "type": "string"
        }
      ],
      "name": "addOption",
      "outputs": [],
      "stateMutability": "nonpayable",
      "type": "function"
    },
    {
      "inputs": [
        {
          "internalType": "uint256",
          "name": "_id",
          "type": "uint256"
        }
      ],
      "name": "getOptions",
      "outputs": [
        {
          "internalType": "string[]",
          "name": "",
          "type": "string[]"
        }
      ],
      "stateMutability": "view",
      "type": "function",
      "constant": true
    },
    {
      "inputs": [
        {
          "internalType": "uint256",
          "name": "_id_poll",
          "type": "uint256"
        },
        {
          "internalType": "uint256",
          "name": "_id_option",
          "type": "uint256"
        }
      ],
      "name": "castVote",
      "outputs": [],
      "stateMutability": "payable",
      "type": "function",
      "payable": true
    },
    {
      "inputs": [
        {
          "internalType": "uint256",
          "name": "_id_poll",
          "type": "uint256"
        }
      ],
      "name": "getVotes",
      "outputs": [
        {
          "components": [
            {
              "internalType": "address",
              "name": "voter",
              "type": "address"
            },
            {
              "internalType": "uint256",
              "name": "id_option",
              "type": "uint256"
            }
          ],
          "internalType": "struct ACME.Vote[]",
          "name": "",
          "type": "tuple[]"
        }
      ],
      "stateMutability": "view",
      "type": "function",
      "constant": true
    },
    {
      "inputs": [
        {
          "internalType": "uint256",
          "name": "_id_poll",
          "type": "uint256"
        },
        {
          "internalType": "uint256",
          "name": "_id_option",
          "type": "uint256"
        }
      ],
      "name": "placeBet",
      "outputs": [],
      "stateMutability": "payable",
      "type": "function",
      "payable": true
    },
    {
      "inputs": [
        {
          "internalType": "uint256",
          "name": "_id_poll",
          "type": "uint256"
        }
      ],
      "name": "getBets",
      "outputs": [
        {
          "components": [
            {
              "internalType": "address",
              "name": "better",
              "type": "address"
            },
            {
              "internalType": "uint256",
              "name": "id_option",
              "type": "uint256"
            },
            {
              "internalType": "uint256",
              "name": "value",
              "type": "uint256"
            }
          ],
          "internalType": "struct ACME.Bet[]",
          "name": "",
          "type": "tuple[]"
        }
      ],
      "stateMutability": "view",
      "type": "function",
      "constant": true
    },
    {
      "inputs": [
        {
          "internalType": "uint256",
          "name": "_id_poll",
          "type": "uint256"
        }
      ],
      "name": "tallyVotes",
      "outputs": [
        {
          "internalType": "uint256[]",
          "name": "",
          "type": "uint256[]"
        }
      ],
      "stateMutability": "view",
      "type": "function",
      "constant": true
    },
    {
      "inputs": [
        {
          "internalType": "uint256",
          "name": "_id_poll",
          "type": "uint256"
        }
      ],
      "name": "computePrizes",
      "outputs": [
        {
          "internalType": "uint256",
          "name": "",
          "type": "uint256"
        },
        {
          "internalType": "uint256",
          "name": "",
          "type": "uint256"
        },
        {
          "internalType": "bool[]",
          "name": "",
          "type": "bool[]"
        }
      ],
      "stateMutability": "view",
      "type": "function",
      "constant": true
    },
    {
      "inputs": [
        {
          "internalType": "uint256",
          "name": "_id_poll",
          "type": "uint256"
        }
      ],
      "name": "closePoll",
      "outputs": [],
      "stateMutability": "nonpayable",
      "type": "function"
    },
    {
      "inputs": [],
      "name": "getBalance",
      "outputs": [
        {
          "internalType": "uint256",
          "name": "",
          "type": "uint256"
        }
      ],
      "stateMutability": "view",
      "type": "function",
      "constant": true
    }
  ],
  "bytecode": "0x6080604052600060045566038d7ea4c6800060055534801561002057600080fd5b50613ccf806100306000396000f3fe6080604052600436106100fe5760003560e01c80634d318b0e11610095578063ac2f007411610064578063ac2f007414610365578063b885528c146103a7578063c7449cb7146103e6578063ea57d5d414610416578063ff9810991461043f576100fe565b80634d318b0e146102855780635df81330146102c25780638915b3fb146102ff5780639534e6371461033c576100fe565b80631ccf6955116100d15780631ccf6955146101d357806322af00fa146102105780632c0a3f891461024d5780634afe62b514610269576100fe565b806312065fe014610103578063120fe89b1461012e5780631719154d146101595780631a8cbcaa14610196575b600080fd5b34801561010f57600080fd5b5061011861047c565b6040516101259190613669565b60405180910390f35b34801561013a57600080fd5b50610143610484565b6040516101509190613559565b60405180910390f35b34801561016557600080fd5b50610180600480360381019061017b9190612d6a565b61073d565b60405161018d9190613559565b60405180910390f35b3480156101a257600080fd5b506101bd60048036038101906101b89190612e0f565b610b80565b6040516101ca9190613647565b60405180910390f35b3480156101df57600080fd5b506101fa60048036038101906101f59190612e0f565b610da6565b6040516102079190613537565b60405180910390f35b34801561021c57600080fd5b5061023760048036038101906102329190612e0f565b610efe565b6040516102449190613669565b60405180910390f35b61026760048036038101906102629190612e98565b610f1c565b005b610283600480360381019061027e9190612e98565b611173565b005b34801561029157600080fd5b506102ac60048036038101906102a79190612e0f565b6113cc565b6040516102b9919061359d565b60405180910390f35b3480156102ce57600080fd5b506102e960048036038101906102e49190612e0f565b611548565b6040516102f69190613669565b60405180910390f35b34801561030b57600080fd5b5061032660048036038101906103219190612e0f565b611566565b6040516103339190613515565b60405180910390f35b34801561034857600080fd5b50610363600480360381019061035e9190612e0f565b611654565b005b34801561037157600080fd5b5061038c60048036038101906103879190612e0f565b6118e5565b60405161039e969594939291906135bf565b60405180910390f35b3480156103b357600080fd5b506103ce60048036038101906103c99190612e0f565b6119d6565b6040516103dd93929190613684565b60405180910390f35b61040060048036038101906103fb9190612db3565b611b14565b60405161040d9190613647565b60405180910390f35b34801561042257600080fd5b5061043d60048036038101906104389190612e3c565b611edf565b005b34801561044b57600080fd5b5061046660048036038101906104619190612e0f565b611f91565b604051610473919061357b565b60405180910390f35b600047905090565b6060600060045467ffffffffffffffff8111156104a4576104a3613c02565b5b6040519080825280602002602001820160405280156104dd57816020015b6104ca612ac2565b8152602001906001900390816104c25790505b50905060005b600454811015610735576000808281526020019081526020016000206040518060e00160405290816000820160009054906101000a900460ff161515151581526020016000820160019054906101000a900473ffffffffffffffffffffffffffffffffffffffff1673ffffffffffffffffffffffffffffffffffffffff1673ffffffffffffffffffffffffffffffffffffffff1681526020016001820154815260200160028201805461059590613a9a565b80601f01602080910402602001604051908101604052809291908181526020018280546105c190613a9a565b801561060e5780601f106105e35761010080835404028352916020019161060e565b820191906000526020600020905b8154815290600101906020018083116105f157829003601f168201915b5050505050815260200160038201805480602002602001604051908101604052809291908181526020016000905b828210156106e857838290600052602060002001805461065b90613a9a565b80601f016020809104026020016040519081016040528092919081815260200182805461068790613a9a565b80156106d45780601f106106a9576101008083540402835291602001916106d4565b820191906000526020600020905b8154815290600101906020018083116106b757829003601f168201915b50505050508152602001906001019061063c565b5050505081526020016004820154815260200160058201548152505082828151811061071757610716613bd3565b5b6020026020010181905250808061072d90613afd565b9150506104e3565b508091505090565b6060600060045467ffffffffffffffff81111561075d5761075c613c02565b5b60405190808252806020026020018201604052801561078b5781602001602082028036833780820191505090505b5090506000805b600454811015610892576108438560008084815260200190815260200160002060020180546107c090613a9a565b80601f01602080910402602001604051908101604052809291908181526020018280546107ec90613a9a565b80156108395780601f1061080e57610100808354040283529160200191610839565b820191906000526020600020905b81548152906001019060200180831161081c57829003601f168201915b50505050506120df565b1561087f57600183828151811061085d5761085c613bd3565b5b60200260200101901515908115158152505060018261087c91906138b7565b91505b808061088a90613afd565b915050610792565b5060008167ffffffffffffffff8111156108af576108ae613c02565b5b6040519080825280602002602001820160405280156108e857816020015b6108d5612ac2565b8152602001906001900390816108cd5790505b5090506000915060005b600454811015610b745783818151811061090f5761090e613bd3565b5b602002602001015115610b61576000808281526020019081526020016000206040518060e00160405290816000820160009054906101000a900460ff161515151581526020016000820160019054906101000a900473ffffffffffffffffffffffffffffffffffffffff1673ffffffffffffffffffffffffffffffffffffffff1673ffffffffffffffffffffffffffffffffffffffff168152602001600182015481526020016002820180546109c490613a9a565b80601f01602080910402602001604051908101604052809291908181526020018280546109f090613a9a565b8015610a3d5780601f10610a1257610100808354040283529160200191610a3d565b820191906000526020600020905b815481529060010190602001808311610a2057829003601f168201915b5050505050815260200160038201805480602002602001604051908101604052809291908181526020016000905b82821015610b17578382906000526020600020018054610a8a90613a9a565b80601f0160208091040260200160405190810160405280929190818152602001828054610ab690613a9a565b8015610b035780601f10610ad857610100808354040283529160200191610b03565b820191906000526020600020905b815481529060010190602001808311610ae657829003601f168201915b505050505081526020019060010190610a6b565b50505050815260200160048201548152602001600582015481525050828481518110610b4657610b45613bd3565b5b6020026020010181905250600183610b5e91906138b7565b92505b8080610b6c90613afd565b9150506108f2565b50809350505050919050565b610b88612ac2565b6000808381526020019081526020016000206040518060e00160405290816000820160009054906101000a900460ff161515151581526020016000820160019054906101000a900473ffffffffffffffffffffffffffffffffffffffff1673ffffffffffffffffffffffffffffffffffffffff1673ffffffffffffffffffffffffffffffffffffffff16815260200160018201548152602001600282018054610c3090613a9a565b80601f0160208091040260200160405190810160405280929190818152602001828054610c5c90613a9a565b8015610ca95780601f10610c7e57610100808354040283529160200191610ca9565b820191906000526020600020905b815481529060010190602001808311610c8c57829003601f168201915b5050505050815260200160038201805480602002602001604051908101604052809291908181526020016000905b82821015610d83578382906000526020600020018054610cf690613a9a565b80601f0160208091040260200160405190810160405280929190818152602001828054610d2290613a9a565b8015610d6f5780601f10610d4457610100808354040283529160200191610d6f565b820191906000526020600020905b815481529060010190602001808311610d5257829003601f168201915b505050505081526020019060010190610cd7565b505050508152602001600482015481526020016005820154815250509050919050565b606060006002600084815260200190815260200160002060010154905060008167ffffffffffffffff811115610ddf57610dde613c02565b5b604051908082528060200260200182016040528015610e1857816020015b610e05612b17565b815260200190600190039081610dfd5790505b50905060005b82811015610ef3576002600086815260200190815260200160002060000160008281526020019081526020016000206040518060600160405290816000820160009054906101000a900473ffffffffffffffffffffffffffffffffffffffff1673ffffffffffffffffffffffffffffffffffffffff1673ffffffffffffffffffffffffffffffffffffffff16815260200160018201548152602001600282015481525050828281518110610ed557610ed4613bd3565b5b60200260200101819052508080610eeb90613afd565b915050610e1e565b508092505050919050565b60026020528060005260406000206000915090508060010154905081565b6004548210610f2a57600080fd5b60008083815260200190815260200160002060000160009054906101000a900460ff16610f5657600080fd5b600080838152602001908152602001600020600301805490508110610f7a57600080fd5b6005543414610f8857600080fd5b6000808381526020019081526020016000206004015442118015610fc057506000808381526020019081526020016000206005015442105b610fc957600080fd5b6003600083815260200190815260200160002060000160003373ffffffffffffffffffffffffffffffffffffffff1673ffffffffffffffffffffffffffffffffffffffff16815260200190815260200160002060009054906101000a900460ff161561103457600080fd5b600060016000848152602001908152602001600020905060008160010154905060405180604001604052803373ffffffffffffffffffffffffffffffffffffffff1681526020018481525082600001600083815260200190815260200160002060008201518160000160006101000a81548173ffffffffffffffffffffffffffffffffffffffff021916908373ffffffffffffffffffffffffffffffffffffffff16021790555060208201518160010155905050600182600101546110f991906138b7565b826001018190555060016003600086815260200190815260200160002060000160003373ffffffffffffffffffffffffffffffffffffffff1673ffffffffffffffffffffffffffffffffffffffff16815260200190815260200160002060006101000a81548160ff02191690831515021790555050505050565b600454821061118157600080fd5b60008083815260200190815260200160002060000160009054906101000a900460ff166111ad57600080fd5b6000808381526020019081526020016000206003018054905081106111d157600080fd5b600080838152602001908152602001600020600401544211801561120957506000808381526020019081526020016000206005015442105b61121257600080fd5b6003600083815260200190815260200160002060000160003373ffffffffffffffffffffffffffffffffffffffff1673ffffffffffffffffffffffffffffffffffffffff16815260200190815260200160002060009054906101000a900460ff161561127d57600080fd5b600060026000848152602001908152602001600020905060008160010154905060405180606001604052803373ffffffffffffffffffffffffffffffffffffffff1681526020018481526020013481525082600001600083815260200190815260200160002060008201518160000160006101000a81548173ffffffffffffffffffffffffffffffffffffffff021916908373ffffffffffffffffffffffffffffffffffffffff16021790555060208201518160010155604082015181600201559050506001826001015461135291906138b7565b826001018190555060016003600086815260200190815260200160002060000160003373ffffffffffffffffffffffffffffffffffffffff1673ffffffffffffffffffffffffffffffffffffffff16815260200190815260200160002060006101000a81548160ff02191690831515021790555050505050565b606060008060008481526020019081526020016000206003018054905067ffffffffffffffff81111561140257611401613c02565b5b6040519080825280602002602001820160405280156114305781602001602082028036833780820191505090505b5090506000600160008581526020019081526020016000206000019050611455612b4e565b60005b600160008781526020019081526020016000206001015481101561153c578260008281526020019081526020016000206040518060400160405290816000820160009054906101000a900473ffffffffffffffffffffffffffffffffffffffff1673ffffffffffffffffffffffffffffffffffffffff1673ffffffffffffffffffffffffffffffffffffffff168152602001600182015481525050915060018483602001518151811061150e5761150d613bd3565b5b6020026020010181815161152291906138b7565b91508181525050808061153490613afd565b915050611458565b50829350505050919050565b60016020528060005260406000206000915090508060010154905081565b6060600080838152602001908152602001600020600301805480602002602001604051908101604052809291908181526020016000905b828210156116495783829060005260206000200180546115bc90613a9a565b80601f01602080910402602001604051908101604052809291908181526020018280546115e890613a9a565b80156116355780601f1061160a57610100808354040283529160200191611635565b820191906000526020600020905b81548152906001019060200180831161161857829003601f168201915b50505050508152602001906001019061159d565b505050509050919050565b60008082815260200190815260200160002060000160019054906101000a900473ffffffffffffffffffffffffffffffffffffffff1673ffffffffffffffffffffffffffffffffffffffff163373ffffffffffffffffffffffffffffffffffffffff16146116c157600080fd5b60008082815260200190815260200160002060000160009054906101000a900460ff166116ed57600080fd5b60008082815260200190815260200160002060050154421161170e57600080fd5b6060600080600061171e856119d6565b8096508194508295505050506000600a60088561173b9190613975565b6117459190613944565b90506117538682858861252e565b809450819350505081818561176891906139cf565b61177291906138b7565b935060006002856117839190613944565b905061179187828689612795565b80955081945050508281866117a691906139cf565b6117b091906138b7565b9450600085856117c091906138b7565b905060008060008a815260200190815260200160002060000160019054906101000a900473ffffffffffffffffffffffffffffffffffffffff1690506000808273ffffffffffffffffffffffffffffffffffffffff168460405161182390613500565b60006040518083038185875af1925050503d8060008114611860576040519150601f19603f3d011682016040523d82523d6000602084013e611865565b606091505b5091509150816118aa576040517f08c379a00000000000000000000000000000000000000000000000000000000081526004016118a190613627565b60405180910390fd5b60008060008d815260200190815260200160002060000160006101000a81548160ff0219169083151502179055505050505050505050505050565b60006020528060005260406000206000915090508060000160009054906101000a900460ff16908060000160019054906101000a900473ffffffffffffffffffffffffffffffffffffffff169080600101549080600201805461194790613a9a565b80601f016020809104026020016040519081016040528092919081815260200182805461197390613a9a565b80156119c05780601f10611995576101008083540402835291602001916119c0565b820191906000526020600020905b8154815290600101906020018083116119a357829003601f168201915b5050505050908060040154908060050154905086565b600080606060006119e685612978565b90506000600260008781526020019081526020016000206000019050600080600554600160008a815260200190815260200160002060010154611a299190613975565b6000808a815260200190815260200160002060010154611a4991906138b7565b905060005b600260008a815260200190815260200160002060010154811015611aff57848460008381526020019081526020016000206001015481518110611a9457611a93613bd3565b5b6020026020010151611ac8578360008281526020019081526020016000206002015483611ac191906138b7565b9250611aec565b8360008281526020019081526020016000206002015482611ae991906138b7565b91505b8080611af790613afd565b915050611a4e565b50818185965096509650505050509193909250565b611b1c612ac2565b60004290506040518060e001604052806001151581526020013373ffffffffffffffffffffffffffffffffffffffff168152602001348152602001858152602001600067ffffffffffffffff811115611b7857611b77613c02565b5b604051908082528060200260200182016040528015611bab57816020015b6060815260200190600190039081611b965790505b5081526020018281526020018483611bc391906138b7565b815250600080600454815260200190815260200160002060008201518160000160006101000a81548160ff02191690831515021790555060208201518160000160016101000a81548173ffffffffffffffffffffffffffffffffffffffff021916908373ffffffffffffffffffffffffffffffffffffffff160217905550604082015181600101556060820151816002019080519060200190611c67929190612b7e565b506080820151816003019080519060200190611c84929190612c04565b5060a0820151816004015560c082015181600501559050506001600454611cab91906138b7565b6004819055506000806001600454611cc391906139cf565b81526020019081526020016000206040518060e00160405290816000820160009054906101000a900460ff161515151581526020016000820160019054906101000a900473ffffffffffffffffffffffffffffffffffffffff1673ffffffffffffffffffffffffffffffffffffffff1673ffffffffffffffffffffffffffffffffffffffff16815260200160018201548152602001600282018054611d6790613a9a565b80601f0160208091040260200160405190810160405280929190818152602001828054611d9390613a9a565b8015611de05780601f10611db557610100808354040283529160200191611de0565b820191906000526020600020905b815481529060010190602001808311611dc357829003601f168201915b5050505050815260200160038201805480602002602001604051908101604052809291908181526020016000905b82821015611eba578382906000526020600020018054611e2d90613a9a565b80601f0160208091040260200160405190810160405280929190818152602001828054611e5990613a9a565b8015611ea65780601f10611e7b57610100808354040283529160200191611ea6565b820191906000526020600020905b815481529060010190602001808311611e8957829003601f168201915b505050505081526020019060010190611e0e565b5050505081526020016004820154815260200160058201548152505091505092915050565b600080600084815260200190815260200160002090508060000160019054906101000a900473ffffffffffffffffffffffffffffffffffffffff1673ffffffffffffffffffffffffffffffffffffffff163373ffffffffffffffffffffffffffffffffffffffff161415611f8c578060030182908060018154018082558091505060019003906000526020600020016000909190919091509080519060200190611f8a929190612b7e565b505b505050565b606060006001600084815260200190815260200160002060010154905060008167ffffffffffffffff811115611fca57611fc9613c02565b5b60405190808252806020026020018201604052801561200357816020015b611ff0612b4e565b815260200190600190039081611fe85790505b50905060005b828110156120d4576001600086815260200190815260200160002060000160008281526020019081526020016000206040518060400160405290816000820160009054906101000a900473ffffffffffffffffffffffffffffffffffffffff1673ffffffffffffffffffffffffffffffffffffffff1673ffffffffffffffffffffffffffffffffffffffff1681526020016001820154815250508282815181106120b6576120b5613bd3565b5b602002602001018190525080806120cc90613afd565b915050612009565b508092505050919050565b60008083905060008390508151815110156120ff57600092505050612528565b60005b825181101561229157604160f81b83828151811061212357612122613bd3565b5b602001015160f81c60f81b7effffffffffffffffffffffffffffffffffffffffffffffffffffffffffffff1916101580156121a15750605a60f81b83828151811061217157612170613bd3565b5b602001015160f81c60f81b7effffffffffffffffffffffffffffffffffffffffffffffffffffffffffffff191611155b1561221d5760208382815181106121bb576121ba613bd3565b5b602001015160f81c60f81b60f81c6121d3919061390d565b60f81b8382815181106121e9576121e8613bd3565b5b60200101907effffffffffffffffffffffffffffffffffffffffffffffffffffffffffffff1916908160001a90535061227e565b8281815181106122305761222f613bd3565b5b602001015160f81c60f81b83828151811061224e5761224d613bd3565b5b60200101907effffffffffffffffffffffffffffffffffffffffffffffffffffffffffffff1916908160001a9053505b808061228990613afd565b915050612102565b5060005b815181101561242457604160f81b8282815181106122b6576122b5613bd3565b5b602001015160f81c60f81b7effffffffffffffffffffffffffffffffffffffffffffffffffffffffffffff1916101580156123345750605a60f81b82828151811061230457612303613bd3565b5b602001015160f81c60f81b7effffffffffffffffffffffffffffffffffffffffffffffffffffffffffffff191611155b156123b057602082828151811061234e5761234d613bd3565b5b602001015160f81c60f81b60f81c612366919061390d565b60f81b82828151811061237c5761237b613bd3565b5b60200101907effffffffffffffffffffffffffffffffffffffffffffffffffffffffffffff1916908160001a905350612411565b8181815181106123c3576123c2613bd3565b5b602001015160f81c60f81b8282815181106123e1576123e0613bd3565b5b60200101907effffffffffffffffffffffffffffffffffffffffffffffffffffffffffffff1916908160001a9053505b808061241c90613afd565b915050612295565b506000805b8351835161243791906139cf565b81116125205760006001905060005b85518110156124fb5785818151811061246257612461613bd3565b5b602001015160f81c60f81b7effffffffffffffffffffffffffffffffffffffffffffffffffffffffffffff191685828561249c91906138b7565b815181106124ad576124ac613bd3565b5b602001015160f81c60f81b7effffffffffffffffffffffffffffffffffffffffffffffffffffffffffffff1916146124e857600091506124fb565b80806124f390613afd565b915050612446565b50801561250c576001925050612520565b50808061251890613afd565b915050612429565b508093505050505b92915050565b600080600060026000888152602001908152602001600020600001905060008060008060008b815260200190815260200160002060010154600554600160008d81526020019081526020016000206001015461258a9190613975565b8961259591906139cf565b61259f91906139cf565b90506000899050600080600090505b600260008e81526020019081526020016000206001015481101561277f578987600083815260200190815260200160002060010154815181106125f4576125f3613bd3565b5b60200260200101511561276c578387600083815260200190815260200160002060020154846126239190613975565b61262d9190613944565b9450848760008381526020019081526020016000206002015461265091906138b7565b9550866000828152602001908152602001600020600201548b61267391906139cf565b9a50848c61268191906139cf565b9b5086600082815260200190815260200160002060000160009054906101000a900473ffffffffffffffffffffffffffffffffffffffff1691506000808373ffffffffffffffffffffffffffffffffffffffff16886040516126e290613500565b60006040518083038185875af1925050503d806000811461271f576040519150601f19603f3d011682016040523d82523d6000602084013e612724565b606091505b509150915081612769576040517f08c379a000000000000000000000000000000000000000000000000000000000815260040161276090613627565b60405180910390fd5b50505b808061277790613afd565b9150506125ae565b508a8a9750975050505050505094509492505050565b60008060006001600088815260200190815260200160002060000190506000806000889050600080600090505b600160008d8152602001908152602001600020600101548110156129635788866000838152602001908152602001600020600101548151811061280857612807613bd3565b5b60200260200101511561295057600160008d815260200190815260200160002060010154836128379190613944565b93508360055461284791906138b7565b94506005548a61285791906139cf565b9950838b61286591906139cf565b9a5085600082815260200190815260200160002060000160009054906101000a900473ffffffffffffffffffffffffffffffffffffffff1691506000808373ffffffffffffffffffffffffffffffffffffffff16876040516128c690613500565b60006040518083038185875af1925050503d8060008114612903576040519150601f19603f3d011682016040523d82523d6000602084013e612908565b606091505b50915091508161294d576040517f08c379a000000000000000000000000000000000000000000000000000000000815260040161294490613627565b60405180910390fd5b50505b808061295b90613afd565b9150506127c2565b50898996509650505050505094509492505050565b606060008060008481526020019081526020016000206003018054905067ffffffffffffffff8111156129ae576129ad613c02565b5b6040519080825280602002602001820160405280156129dc5781602001602082028036833780820191505090505b50905060006129ea846113cc565b90506000805b8251811015612a4c5781838281518110612a0d57612a0c613bd3565b5b60200260200101511115612a3957828181518110612a2e57612a2d613bd3565b5b602002602001015191505b8080612a4490613afd565b9150506129f0565b5060005b8251811015612ab65781838281518110612a6d57612a6c613bd3565b5b60200260200101511415612aa3576001848281518110612a9057612a8f613bd3565b5b6020026020010190151590811515815250505b8080612aae90613afd565b915050612a50565b50829350505050919050565b6040518060e00160405280600015158152602001600073ffffffffffffffffffffffffffffffffffffffff16815260200160008152602001606081526020016060815260200160008152602001600081525090565b6040518060600160405280600073ffffffffffffffffffffffffffffffffffffffff16815260200160008152602001600081525090565b6040518060400160405280600073ffffffffffffffffffffffffffffffffffffffff168152602001600081525090565b828054612b8a90613a9a565b90600052602060002090601f016020900481019282612bac5760008555612bf3565b82601f10612bc557805160ff1916838001178555612bf3565b82800160010185558215612bf3579182015b82811115612bf2578251825591602001919060010190612bd7565b5b509050612c009190612c64565b5090565b828054828255906000526020600020908101928215612c53579160200282015b82811115612c52578251829080519060200190612c42929190612b7e565b5091602001919060010190612c24565b5b509050612c609190612c81565b5090565b5b80821115612c7d576000816000905550600101612c65565b5090565b5b80821115612ca15760008181612c989190612ca5565b50600101612c82565b5090565b508054612cb190613a9a565b6000825580601f10612cc35750612ce2565b601f016020900490600052602060002090810190612ce19190612c64565b5b50565b6000612cf8612cf3846136e7565b6136c2565b905082815260208101848484011115612d1457612d13613c36565b5b612d1f848285613a58565b509392505050565b600082601f830112612d3c57612d3b613c31565b5b8135612d4c848260208601612ce5565b91505092915050565b600081359050612d6481613c82565b92915050565b600060208284031215612d8057612d7f613c40565b5b600082013567ffffffffffffffff811115612d9e57612d9d613c3b565b5b612daa84828501612d27565b91505092915050565b60008060408385031215612dca57612dc9613c40565b5b600083013567ffffffffffffffff811115612de857612de7613c3b565b5b612df485828601612d27565b9250506020612e0585828601612d55565b9150509250929050565b600060208284031215612e2557612e24613c40565b5b6000612e3384828501612d55565b91505092915050565b60008060408385031215612e5357612e52613c40565b5b6000612e6185828601612d55565b925050602083013567ffffffffffffffff811115612e8257612e81613c3b565b5b612e8e85828601612d27565b9150509250929050565b60008060408385031215612eaf57612eae613c40565b5b6000612ebd85828601612d55565b9250506020612ece85828601612d55565b9150509250929050565b6000612ee48383613255565b60208301905092915050565b6000612efc8383613273565b905092915050565b6000612f10838361332b565b60608301905092915050565b6000612f28838361336d565b905092915050565b6000612f3c83836134b3565b60408301905092915050565b6000612f5483836134e2565b60208301905092915050565b612f6981613a03565b82525050565b612f7881613a03565b82525050565b6000612f8982613778565b612f938185613813565b9350612f9e83613718565b8060005b83811015612fcf578151612fb68882612ed8565b9750612fc1836137c5565b925050600181019050612fa2565b5085935050505092915050565b6000612fe782613783565b612ff18185613824565b93508360208202850161300385613728565b8060005b8581101561303f57848403895281516130208582612ef0565b945061302b836137d2565b925060208a01995050600181019050613007565b50829750879550505050505092915050565b600061305c82613783565b6130668185613835565b93508360208202850161307885613728565b8060005b858110156130b457848403895281516130958582612ef0565b94506130a0836137d2565b925060208a0199505060018101905061307c565b50829750879550505050505092915050565b60006130d18261378e565b6130db8185613846565b93506130e683613738565b8060005b838110156131175781516130fe8882612f04565b9750613109836137df565b9250506001810190506130ea565b5085935050505092915050565b600061312f82613799565b6131398185613857565b93508360208202850161314b85613748565b8060005b8581101561318757848403895281516131688582612f1c565b9450613173836137ec565b925060208a0199505060018101905061314f565b50829750879550505050505092915050565b60006131a4826137a4565b6131ae8185613868565b93506131b983613758565b8060005b838110156131ea5781516131d18882612f30565b97506131dc836137f9565b9250506001810190506131bd565b5085935050505092915050565b6000613202826137af565b61320c8185613879565b935061321783613768565b8060005b8381101561324857815161322f8882612f48565b975061323a83613806565b92505060018101905061321b565b5085935050505092915050565b61325e81613a15565b82525050565b61326d81613a15565b82525050565b600061327e826137ba565b6132888185613895565b9350613298818560208601613a67565b6132a181613c45565b840191505092915050565b60006132b7826137ba565b6132c181856138a6565b93506132d1818560208601613a67565b6132da81613c45565b840191505092915050565b60006132f26014836138a6565b91506132fd82613c56565b602082019050919050565b600061331560008361388a565b915061332082613c7f565b600082019050919050565b6060820160008201516133416000850182612f60565b50602082015161335460208501826134e2565b50604082015161336760408501826134e2565b50505050565b600060e0830160008301516133856000860182613255565b5060208301516133986020860182612f60565b5060408301516133ab60408601826134e2565b50606083015184820360608601526133c38282613273565b915050608083015184820360808601526133dd8282612fdc565b91505060a08301516133f260a08601826134e2565b5060c083015161340560c08601826134e2565b508091505092915050565b600060e0830160008301516134286000860182613255565b50602083015161343b6020860182612f60565b50604083015161344e60408601826134e2565b50606083015184820360608601526134668282613273565b915050608083015184820360808601526134808282612fdc565b91505060a083015161349560a08601826134e2565b5060c08301516134a860c08601826134e2565b508091505092915050565b6040820160008201516134c96000850182612f60565b5060208201516134dc60208501826134e2565b50505050565b6134eb81613a41565b82525050565b6134fa81613a41565b82525050565b600061350b82613308565b9150819050919050565b6000602082019050818103600083015261352f8184613051565b905092915050565b6000602082019050818103600083015261355181846130c6565b905092915050565b600060208201905081810360008301526135738184613124565b905092915050565b600060208201905081810360008301526135958184613199565b905092915050565b600060208201905081810360008301526135b781846131f7565b905092915050565b600060c0820190506135d46000830189613264565b6135e16020830188612f6f565b6135ee60408301876134f1565b818103606083015261360081866132ac565b905061360f60808301856134f1565b61361c60a08301846134f1565b979650505050505050565b60006020820190508181036000830152613640816132e5565b9050919050565b600060208201905081810360008301526136618184613410565b905092915050565b600060208201905061367e60008301846134f1565b92915050565b600060608201905061369960008301866134f1565b6136a660208301856134f1565b81810360408301526136b88184612f7e565b9050949350505050565b60006136cc6136dd565b90506136d88282613acc565b919050565b6000604051905090565b600067ffffffffffffffff82111561370257613701613c02565b5b61370b82613c45565b9050602081019050919050565b6000819050602082019050919050565b6000819050602082019050919050565b6000819050602082019050919050565b6000819050602082019050919050565b6000819050602082019050919050565b6000819050602082019050919050565b600081519050919050565b600081519050919050565b600081519050919050565b600081519050919050565b600081519050919050565b600081519050919050565b600081519050919050565b6000602082019050919050565b6000602082019050919050565b6000602082019050919050565b6000602082019050919050565b6000602082019050919050565b6000602082019050919050565b600082825260208201905092915050565b600082825260208201905092915050565b600082825260208201905092915050565b600082825260208201905092915050565b600082825260208201905092915050565b600082825260208201905092915050565b600082825260208201905092915050565b600081905092915050565b600082825260208201905092915050565b600082825260208201905092915050565b60006138c282613a41565b91506138cd83613a41565b9250827fffffffffffffffffffffffffffffffffffffffffffffffffffffffffffffffff0382111561390257613901613b46565b5b828201905092915050565b600061391882613a4b565b915061392383613a4b565b92508260ff0382111561393957613938613b46565b5b828201905092915050565b600061394f82613a41565b915061395a83613a41565b92508261396a57613969613b75565b5b828204905092915050565b600061398082613a41565b915061398b83613a41565b9250817fffffffffffffffffffffffffffffffffffffffffffffffffffffffffffffffff04831182151516156139c4576139c3613b46565b5b828202905092915050565b60006139da82613a41565b91506139e583613a41565b9250828210156139f8576139f7613b46565b5b828203905092915050565b6000613a0e82613a21565b9050919050565b60008115159050919050565b600073ffffffffffffffffffffffffffffffffffffffff82169050919050565b6000819050919050565b600060ff82169050919050565b82818337600083830152505050565b60005b83811015613a85578082015181840152602081019050613a6a565b83811115613a94576000848401525b50505050565b60006002820490506001821680613ab257607f821691505b60208210811415613ac657613ac5613ba4565b5b50919050565b613ad582613c45565b810181811067ffffffffffffffff82111715613af457613af3613c02565b5b80604052505050565b6000613b0882613a41565b91507fffffffffffffffffffffffffffffffffffffffffffffffffffffffffffffffff821415613b3b57613b3a613b46565b5b600182019050919050565b7f4e487b7100000000000000000000000000000000000000000000000000000000600052601160045260246000fd5b7f4e487b7100000000000000000000000000000000000000000000000000000000600052601260045260246000fd5b7f4e487b7100000000000000000000000000000000000000000000000000000000600052602260045260246000fd5b7f4e487b7100000000000000000000000000000000000000000000000000000000600052603260045260246000fd5b7f4e487b7100000000000000000000000000000000000000000000000000000000600052604160045260246000fd5b600080fd5b600080fd5b600080fd5b600080fd5b6000601f19601f8301169050919050565b7f4661696c656420746f2073656e64204574686572000000000000000000000000600082015250565b50565b613c8b81613a41565b8114613c9657600080fd5b5056fea2646970667358221220d4877097333baddd12c49b35a763009fb502d1e915af3314609df3999a2e534664736f6c63430008070033",
  "immutableReferences": {},
  "source": "pragma solidity ^0.8.7;\n \ncontract ACME {\n\n    struct Poll // Enquete\n    {\n        bool open;\n        address creator; // Criador da enquete\n        uint initial_amount; // Montante inicial na enquete\n        string question; // A pergunta da enquete\n        string[] options; // As opes de resposta\n        uint time_start; // Timestamp de incio\n        uint time_end; // Timestamp de fim\n    }\n\n    struct Vote // Voto\n    {\n        address voter; // Usurio eleitor\n        uint id_option; // Opo em que o usurio votou\n    }\n\n    struct Bet // Aposta\n    {\n        address better; // Usurio apostador\n        uint id_option; // Opo em que o usurio apostou\n        uint value; // Valor da aposta\n    }\n\n\n    // Estruturas especficas para permitir o armazenamento\n    struct VoteStorage {\n        mapping(uint => Vote) stored_votes;\n        uint n_votes;\n    }\n\n    struct BetStorage {\n        mapping(uint => Bet) stored_bets;\n        uint n_bets;\n    }\n\n    struct ParticipantsRecord {\n        mapping(address => bool) participants;\n    }\n\n    mapping(uint => Poll) public polls;\n    mapping(uint => VoteStorage) public votes;\n    mapping(uint => BetStorage) public bets;\n    mapping(uint => ParticipantsRecord) private participations;\n    uint n_polls = 0; // o identificador das enquetes  um contador\n\n    uint vote_fee = 1000000000000000;\n\n\n    function createPoll(string memory _question, uint _valid_period) public payable \n        returns (Poll memory) {\n        uint ts = block.timestamp;\n        polls[n_polls] = Poll({open: true, creator: msg.sender, initial_amount: msg.value, question: _question,\n                               options: new string[](0), time_start: ts, time_end: ts + _valid_period});\n        n_polls = n_polls + 1;\n        return polls[n_polls - 1];\n    }\n\n\n    function getPoll(uint _id) public view\n        returns (Poll memory) {\n        return polls[_id];\n    }\n\n    function getPolls() public view \n        returns (Poll[] memory) {\n        Poll[] memory current_polls = new Poll[](n_polls);\n\n        for (uint i = 0; i < n_polls; i++) {\n            current_polls[i] = polls[i];\n        }\n\n        return current_polls;\n    }\n\n    // Encontramos essa funo para achar uma palavra em um string\n    function contains (string memory what, string memory where) private pure returns (bool) {\n        bytes memory whatBytes = bytes (what);\n        bytes memory whereBytes = bytes (where);\n\n        if (whereBytes.length < whatBytes.length) {\n            return false;\n        }\n\n        // Tratar como lowercase\n\n        for (uint i = 0; i < whatBytes.length; i++) {\n\t\t\tif ((whatBytes[i] >= 0x41) && (whatBytes[i] <= 0x5A)) {\n\t\t\t\twhatBytes[i] = bytes1(uint8(whatBytes[i]) + 0x20);\n\t\t\t} else {\n\t\t\t\twhatBytes[i] = whatBytes[i];\n\t\t\t}\n\t\t}\n\n        for (uint i = 0; i < whereBytes.length; i++) {\n\t\t\tif ((whereBytes[i] >= 0x41) && (whereBytes[i] <= 0x5A)) {\n\t\t\t\twhereBytes[i] = bytes1(uint8(whereBytes[i]) + 0x20);\n\t\t\t} else {\n\t\t\t\twhereBytes[i] = whereBytes[i];\n\t\t\t}\n\t\t}\n\n\n        bool found = false;\n\n\n        for (uint i = 0; i <= whereBytes.length - whatBytes.length; i++) {\n            bool flag = true;\n            for (uint j = 0; j < whatBytes.length; j++)\n                if (whereBytes [i + j] != whatBytes [j]) {\n                    flag = false;\n                    break;\n                }\n            if (flag) {\n                found = true;\n                break;\n            }\n        }\n    \n        return found;\n    }\n\n    function searchPollsWithWord(string memory word) public view \n        returns (Poll[] memory) {\n        bool[] memory polls_containing = new bool[](n_polls);\n\n        uint idx = 0;\n\n        for (uint i = 0; i < n_polls; i++) {\n            if (contains(word, polls[i].question)) {\n                polls_containing[i] = true;\n                idx += 1;\n            }\n        }\n\n        Poll[] memory result_polls = new Poll[](idx);\n\n        idx = 0;\n\n        for (uint i = 0; i < n_polls; i++) {\n            if (polls_containing[i]) {\n                result_polls[idx] = polls[i];\n                idx += 1;\n            }\n        }\n        return result_polls;\n    }\n\n\n\n    function addOption(uint _id, string memory _option) public {\n        Poll storage poll = polls[_id];\n        if (msg.sender == poll.creator) {\n            poll.options.push(_option);\n        }\n    }\n\n\n    function getOptions(uint _id) public view\n        returns (string[] memory) {\n        return polls[_id].options;\n    }\n\n\n    function castVote(uint _id_poll, uint _id_option) public payable {\n        require(_id_poll < n_polls);                                // enquete existe\n        require(polls[_id_poll].open);                              // enquete aberta\n        require(_id_option < polls[_id_poll].options.length);       // opo de resposta existe\n        require(msg.value == vote_fee);                             // pagando a taxa para votos\n        require(block.timestamp > polls[_id_poll].time_start && block.timestamp < polls[_id_poll].time_end);\n                                                                    // voto no perodo de tempo aceitvel\n        require(!participations[_id_poll].participants[msg.sender]);// usurio no votou/apostou\n\n        VoteStorage storage vote_storage = votes[_id_poll];\n        uint idx = vote_storage.n_votes;\n        vote_storage.stored_votes[idx] = Vote({voter: msg.sender, id_option: _id_option});\n        vote_storage.n_votes = vote_storage.n_votes + 1;\n\n        participations[_id_poll].participants[msg.sender] = true;\n    }\n\n\n    function getVotes(uint _id_poll) public view \n        returns (Vote[] memory) {\n\n        uint n_votes = votes[_id_poll].n_votes;\n        Vote[] memory vote_result = new Vote[](n_votes);\n\n        for (uint i = 0; i < n_votes; i++) {\n            vote_result[i] = votes[_id_poll].stored_votes[i];\n        }\n\n        return vote_result;\n    }\n\n\n    function placeBet(uint _id_poll, uint _id_option) \n        public payable {\n        require(_id_poll < n_polls);                                // enquete existe\n        require(polls[_id_poll].open);                              // enquete aberta\n        require(_id_option < polls[_id_poll].options.length);       // opo de resposta existe\n        require(block.timestamp > polls[_id_poll].time_start && block.timestamp < polls[_id_poll].time_end);\n                                                                    // aposta no periodo aceitvel\n        require(!participations[_id_poll].participants[msg.sender]);// usurio no votou/apostou ainda\n\n        BetStorage storage bet_storage = bets[_id_poll];\n        uint idx = bet_storage.n_bets;\n        bet_storage.stored_bets[idx] = Bet({better: msg.sender, id_option: _id_option, value: msg.value});\n        bet_storage.n_bets = bet_storage.n_bets + 1;\n\n        participations[_id_poll].participants[msg.sender] = true;\n    }\n\n\n    function getBets(uint _id_poll) public view \n        returns (Bet[] memory) {\n \n        uint n_bets = bets[_id_poll].n_bets;\n        Bet[] memory bets_array = new Bet[](n_bets);\n\n        for (uint i = 0; i < n_bets; i++) {\n            bets_array[i] = bets[_id_poll].stored_bets[i];\n        }\n\n        return bets_array;\n    }\n\n\n    // Calcula os votos para cada opo\n    function tallyVotes(uint _id_poll) public view \n        returns (uint[] memory) {\n        uint[] memory votes_total = new uint[](polls[_id_poll].options.length);\n        mapping(uint => Vote) storage votes_in_storage = votes[_id_poll].stored_votes;\n        Vote memory vote;\n\n        for (uint i = 0; i < votes[_id_poll].n_votes; i++) {\n            vote = votes_in_storage[i];\n            votes_total[vote.id_option] += 1;\n        }\n\n        return votes_total;\n    }\n\n    // Resultado da enquete\n    // Retorna um array de booleanos, em que uma posio  true\n    // se a opo correspondente tem o nmero mximo de votos\n    function getPollResult(uint _id_poll) private view \n        returns (bool[] memory) {\n        bool[] memory result = new bool[](polls[_id_poll].options.length);\n\n        uint[] memory votes_total = tallyVotes(_id_poll);\n\n        uint max = 0;\n\n        for (uint i = 0; i < votes_total.length; i++) {\n            if (votes_total[i] > max) {\n                max = votes_total[i];\n            }\n        }\n        for (uint i = 0; i < votes_total.length; i++) {\n            if (votes_total[i] == max) {\n                result[i] = true;\n            }\n        }\n\n        return result;\n    }\n\n\n    function computePrizes(uint _id_poll) public view \n        returns (uint, uint, bool[] memory) {\n        bool[] memory result = getPollResult(_id_poll);\n\n        mapping(uint => Bet) storage bets_in_storage = bets[_id_poll].stored_bets;\n\n        // dinheiro dos perdedores, que ser embolsado pelos outros participantes\n        uint prize_money = 0; \n\n        // dinheiro a ser reembolsado (inicial + taxas dos votos + apostas dos vencedores)\n        uint refund_money = polls[_id_poll].initial_amount + votes[_id_poll].n_votes * vote_fee;\n\n        for (uint i = 0; i < bets[_id_poll].n_bets; i++) {\n            if (!result[bets_in_storage[i].id_option]) {\n                prize_money += bets_in_storage[i].value;\n            } else {\n                refund_money += bets_in_storage[i].value;\n            }\n        }\n\n        return (prize_money, refund_money, result);\n    }\n\n\n    function payReward(uint _id_poll, uint prize_money, uint refund_money, bool[] memory result) private \n        returns (uint, uint) {\n\n        mapping(uint => Bet) storage bets_in_storage = bets[_id_poll].stored_bets;\n        uint value_to_transfer;\n        uint reward;\n\n        // Queremos que os que apostaram mais sejam mais recompensados\n        // total_bet_winners  o total apostado pelos vencedores\n        uint total_bet_winners = refund_money - votes[_id_poll].n_votes * vote_fee - polls[_id_poll].initial_amount;\n\n        uint total_prize_money = prize_money;\n        address payable to;\n\n        for (uint i = 0; i < bets[_id_poll].n_bets; i++) {\n            if (result[bets_in_storage[i].id_option]) {\n                // Os vencedores recebem a aposta de volta, mais um valor de total_prize_money,\n                // proporcional ao que apostaram\n                reward = (total_prize_money * bets_in_storage[i].value) / total_bet_winners;\n                value_to_transfer = bets_in_storage[i].value + reward;\n\n                refund_money -= bets_in_storage[i].value;\n                prize_money -= reward;\n\n                // Mandando para cada um dos apostadores\n                to = payable(bets_in_storage[i].better);\n                (bool sent, bytes memory data) = to.call{value: value_to_transfer}(\"\");\n                require(sent, \"Failed to send Ether\");\n            }\n        }\n\n        return (prize_money, refund_money);\n    }\n\n\n    function payVoters(uint _id_poll, uint prize_money, uint refund_money, bool[] memory result) private\n        returns (uint, uint) {\n\n        mapping(uint => Vote) storage votes_in_storage = votes[_id_poll].stored_votes;\n        uint value_to_transfer;\n        uint reward;\n\n        uint total_prize_money = prize_money;\n        address payable to;\n\n        for (uint i = 0; i < votes[_id_poll].n_votes; i++) {\n            if (result[votes_in_storage[i].id_option]) {\n                // Os usurios que votaram simplesmente recebem o dinheiro de volta,\n                // mais um pouco do montante dos que perderam\n                reward = total_prize_money / votes[_id_poll].n_votes;\n                value_to_transfer = vote_fee + reward;\n\n                refund_money -= vote_fee;\n                prize_money -= reward;\n                \n                // Mandando para cada um dos eleitores\n                to = payable(votes_in_storage[i].voter);\n                (bool sent, bytes memory data) = to.call{value: value_to_transfer}(\"\");\n                require(sent, \"Failed to send Ether\");\n            }\n        }\n\n        return (prize_money, refund_money);\n    }\n\n    function closePoll(uint _id_poll) public {\n        require(msg.sender == polls[_id_poll].creator);\n        require(polls[_id_poll].open);\n        require(block.timestamp > polls[_id_poll].time_end);\n\n        bool[] memory result;\n\n        uint prize_money;\n        uint refund_money;\n        uint money_left;\n\n        (prize_money, refund_money, result) = computePrizes(_id_poll);\n\n        // Tomamos cuidado para que nenhum dinheiro se perca com as divises\n\n        uint bettors_cut = (prize_money * 8) / 10; // 80% do dinheiro prmio vai para os apostadores\n        (money_left, refund_money) = payReward(_id_poll, bettors_cut, refund_money, result);\n        prize_money = prize_money - bettors_cut + money_left;\n\n        uint voters_cut = (prize_money) / 2; // O resto (20%)  dividido entre os usurios que votaram e o criador\n        (money_left, refund_money) = payVoters(_id_poll, voters_cut, refund_money, result);\n        prize_money = prize_money - voters_cut + money_left;\n\n        uint creators_cut = refund_money + prize_money;\n\n        // Mandando para o criador\n        address to = payable(polls[_id_poll].creator);\n        (bool sent, bytes memory data) = to.call{value: creators_cut}(\"\");\n        require(sent, \"Failed to send Ether\");\n\n        polls[_id_poll].open = false;\n    }\n\n    \n    function getBalance() public view returns (uint) {\n        return address(this).balance;\n    }\n}\n",
  "sourcePath": "/home/hobs/Documents/CCO/2021_2/Cripto/acme/contracts/ACME.sol",
  "compiler": {
    "name": "solc",
    "version": "0.8.7+commit.e28d00a7.Emscripten.clang"
  },
  "schemaVersion": "3.4.6",
  "updatedAt": "2022-03-13T19:10:02.924Z",
  "networkType": "ethereum",
  "devdoc": {
    "kind": "dev",
    "methods": {},
    "version": 1
  },
  "userdoc": {
    "kind": "user",
    "methods": {},
    "version": 1
  }
}