{
  "contractName": "ACME",
  "abi": [
    {
      "inputs": [
        {
          "internalType": "uint256",
          "name": "",
          "type": "uint256"
        }
      ],
      "name": "bets",
      "outputs": [
        {
          "internalType": "uint256",
          "name": "n_bets",
          "type": "uint256"
        }
      ],
      "stateMutability": "view",
      "type": "function",
      "constant": true
    },
    {
      "inputs": [
        {
          "internalType": "uint256",
          "name": "",
          "type": "uint256"
        }
      ],
      "name": "polls",
      "outputs": [
        {
          "internalType": "bool",
          "name": "open",
          "type": "bool"
        },
        {
          "internalType": "address",
          "name": "creator",
          "type": "address"
        },
        {
          "internalType": "uint256",
          "name": "initial_amount",
          "type": "uint256"
        },
        {
          "internalType": "string",
          "name": "question",
          "type": "string"
        },
        {
          "internalType": "uint256",
          "name": "time_start",
          "type": "uint256"
        },
        {
          "internalType": "uint256",
          "name": "time_end",
          "type": "uint256"
        }
      ],
      "stateMutability": "view",
      "type": "function",
      "constant": true
    },
    {
      "inputs": [
        {
          "internalType": "uint256",
          "name": "",
          "type": "uint256"
        }
      ],
      "name": "votes",
      "outputs": [
        {
          "internalType": "uint256",
          "name": "n_votes",
          "type": "uint256"
        }
      ],
      "stateMutability": "view",
      "type": "function",
      "constant": true
    },
    {
      "inputs": [
        {
          "internalType": "string",
          "name": "_question",
          "type": "string"
        },
        {
          "internalType": "uint256",
          "name": "_valid_period",
          "type": "uint256"
        }
      ],
      "name": "createPoll",
      "outputs": [
        {
          "internalType": "uint256",
          "name": "",
          "type": "uint256"
        }
      ],
      "stateMutability": "payable",
      "type": "function",
      "payable": true
    },
    {
      "inputs": [
        {
          "internalType": "uint256",
          "name": "_id",
          "type": "uint256"
        }
      ],
      "name": "getPoll",
      "outputs": [
        {
          "components": [
            {
              "internalType": "bool",
              "name": "open",
              "type": "bool"
            },
            {
              "internalType": "address",
              "name": "creator",
              "type": "address"
            },
            {
              "internalType": "uint256",
              "name": "initial_amount",
              "type": "uint256"
            },
            {
              "internalType": "string",
              "name": "question",
              "type": "string"
            },
            {
              "internalType": "string[]",
              "name": "options",
              "type": "string[]"
            },
            {
              "internalType": "uint256",
              "name": "time_start",
              "type": "uint256"
            },
            {
              "internalType": "uint256",
              "name": "time_end",
              "type": "uint256"
            }
          ],
          "internalType": "struct ACME.Poll",
          "name": "",
          "type": "tuple"
        }
      ],
      "stateMutability": "view",
      "type": "function",
      "constant": true
    },
    {
      "inputs": [],
      "name": "getPolls",
      "outputs": [
        {
          "components": [
            {
              "internalType": "bool",
              "name": "open",
              "type": "bool"
            },
            {
              "internalType": "address",
              "name": "creator",
              "type": "address"
            },
            {
              "internalType": "uint256",
              "name": "initial_amount",
              "type": "uint256"
            },
            {
              "internalType": "string",
              "name": "question",
              "type": "string"
            },
            {
              "internalType": "string[]",
              "name": "options",
              "type": "string[]"
            },
            {
              "internalType": "uint256",
              "name": "time_start",
              "type": "uint256"
            },
            {
              "internalType": "uint256",
              "name": "time_end",
              "type": "uint256"
            }
          ],
          "internalType": "struct ACME.Poll[]",
          "name": "",
          "type": "tuple[]"
        }
      ],
      "stateMutability": "view",
      "type": "function",
      "constant": true
    },
    {
      "inputs": [
        {
          "internalType": "string",
          "name": "word",
          "type": "string"
        }
      ],
      "name": "searchPollsWithWord",
      "outputs": [
        {
          "components": [
            {
              "internalType": "bool",
              "name": "open",
              "type": "bool"
            },
            {
              "internalType": "address",
              "name": "creator",
              "type": "address"
            },
            {
              "internalType": "uint256",
              "name": "initial_amount",
              "type": "uint256"
            },
            {
              "internalType": "string",
              "name": "question",
              "type": "string"
            },
            {
              "internalType": "string[]",
              "name": "options",
              "type": "string[]"
            },
            {
              "internalType": "uint256",
              "name": "time_start",
              "type": "uint256"
            },
            {
              "internalType": "uint256",
              "name": "time_end",
              "type": "uint256"
            }
          ],
          "internalType": "struct ACME.Poll[]",
          "name": "",
          "type": "tuple[]"
        }
      ],
      "stateMutability": "view",
      "type": "function",
      "constant": true
    },
    {
      "inputs": [
        {
          "internalType": "uint256",
          "name": "_id",
          "type": "uint256"
        },
        {
          "internalType": "string",
          "name": "_option",
          "type": "string"
        }
      ],
      "name": "addOption",
      "outputs": [],
      "stateMutability": "nonpayable",
      "type": "function"
    },
    {
      "inputs": [
        {
          "internalType": "uint256",
          "name": "_id",
          "type": "uint256"
        }
      ],
      "name": "getOptions",
      "outputs": [
        {
          "internalType": "string[]",
          "name": "",
          "type": "string[]"
        }
      ],
      "stateMutability": "view",
      "type": "function",
      "constant": true
    },
    {
      "inputs": [
        {
          "internalType": "uint256",
          "name": "_id_poll",
          "type": "uint256"
        },
        {
          "internalType": "uint256",
          "name": "_id_option",
          "type": "uint256"
        }
      ],
      "name": "castVote",
      "outputs": [],
      "stateMutability": "payable",
      "type": "function",
      "payable": true
    },
    {
      "inputs": [
        {
          "internalType": "uint256",
          "name": "_id_poll",
          "type": "uint256"
        }
      ],
      "name": "getVotes",
      "outputs": [
        {
          "components": [
            {
              "internalType": "address",
              "name": "voter",
              "type": "address"
            },
            {
              "internalType": "uint256",
              "name": "id_option",
              "type": "uint256"
            }
          ],
          "internalType": "struct ACME.Vote[]",
          "name": "",
          "type": "tuple[]"
        }
      ],
      "stateMutability": "view",
      "type": "function",
      "constant": true
    },
    {
      "inputs": [
        {
          "internalType": "uint256",
          "name": "_id_poll",
          "type": "uint256"
        },
        {
          "internalType": "uint256",
          "name": "_id_option",
          "type": "uint256"
        }
      ],
      "name": "placeBet",
      "outputs": [],
      "stateMutability": "payable",
      "type": "function",
      "payable": true
    },
    {
      "inputs": [
        {
          "internalType": "uint256",
          "name": "_id_poll",
          "type": "uint256"
        }
      ],
      "name": "getBets",
      "outputs": [
        {
          "components": [
            {
              "internalType": "address",
              "name": "better",
              "type": "address"
            },
            {
              "internalType": "uint256",
              "name": "id_option",
              "type": "uint256"
            },
            {
              "internalType": "uint256",
              "name": "value",
              "type": "uint256"
            }
          ],
          "internalType": "struct ACME.Bet[]",
          "name": "",
          "type": "tuple[]"
        }
      ],
      "stateMutability": "view",
      "type": "function",
      "constant": true
    },
    {
      "inputs": [
        {
          "internalType": "uint256",
          "name": "_id_poll",
          "type": "uint256"
        }
      ],
      "name": "tallyVotes",
      "outputs": [
        {
          "internalType": "uint256[]",
          "name": "",
          "type": "uint256[]"
        }
      ],
      "stateMutability": "view",
      "type": "function",
      "constant": true
    },
    {
      "inputs": [
        {
          "internalType": "uint256",
          "name": "_id_poll",
          "type": "uint256"
        }
      ],
      "name": "computePrizes",
      "outputs": [
        {
          "internalType": "uint256",
          "name": "",
          "type": "uint256"
        },
        {
          "internalType": "uint256",
          "name": "",
          "type": "uint256"
        },
        {
          "internalType": "bool[]",
          "name": "",
          "type": "bool[]"
        }
      ],
      "stateMutability": "view",
      "type": "function",
      "constant": true
    },
    {
      "inputs": [
        {
          "internalType": "uint256",
          "name": "_id_poll",
          "type": "uint256"
        }
      ],
      "name": "closePoll",
      "outputs": [],
      "stateMutability": "nonpayable",
      "type": "function"
    },
    {
      "inputs": [],
      "name": "getBalance",
      "outputs": [
        {
          "internalType": "uint256",
          "name": "",
          "type": "uint256"
        }
      ],
      "stateMutability": "view",
      "type": "function",
      "constant": true
    }
  ],
  "bytecode": "0x6080604052600060045566038d7ea4c6800060055534801561002057600080fd5b50613ab2806100306000396000f3fe6080604052600436106100fe5760003560e01c80634d318b0e11610095578063ac2f007411610064578063ac2f007414610365578063b885528c146103a7578063c7449cb7146103e6578063ea57d5d414610416578063ff9810991461043f576100fe565b80634d318b0e146102855780635df81330146102c25780638915b3fb146102ff5780639534e6371461033c576100fe565b80631ccf6955116100d15780631ccf6955146101d357806322af00fa146102105780632c0a3f891461024d5780634afe62b514610269576100fe565b806312065fe014610103578063120fe89b1461012e5780631719154d146101595780631a8cbcaa14610196575b600080fd5b34801561010f57600080fd5b5061011861047c565b604051610125919061344c565b60405180910390f35b34801561013a57600080fd5b50610143610484565b604051610150919061333c565b60405180910390f35b34801561016557600080fd5b50610180600480360381019061017b9190612b4d565b61073d565b60405161018d919061333c565b60405180910390f35b3480156101a257600080fd5b506101bd60048036038101906101b89190612bf2565b610b80565b6040516101ca919061342a565b60405180910390f35b3480156101df57600080fd5b506101fa60048036038101906101f59190612bf2565b610da6565b604051610207919061331a565b60405180910390f35b34801561021c57600080fd5b5061023760048036038101906102329190612bf2565b610efe565b604051610244919061344c565b60405180910390f35b61026760048036038101906102629190612c7b565b610f1c565b005b610283600480360381019061027e9190612c7b565b611173565b005b34801561029157600080fd5b506102ac60048036038101906102a79190612bf2565b6113cc565b6040516102b99190613380565b60405180910390f35b3480156102ce57600080fd5b506102e960048036038101906102e49190612bf2565b611548565b6040516102f6919061344c565b60405180910390f35b34801561030b57600080fd5b5061032660048036038101906103219190612bf2565b611566565b60405161033391906132f8565b60405180910390f35b34801561034857600080fd5b50610363600480360381019061035e9190612bf2565b611654565b005b34801561037157600080fd5b5061038c60048036038101906103879190612bf2565b6118e5565b60405161039e969594939291906133a2565b60405180910390f35b3480156103b357600080fd5b506103ce60048036038101906103c99190612bf2565b6119d6565b6040516103dd93929190613467565b60405180910390f35b61040060048036038101906103fb9190612b96565b611b14565b60405161040d919061344c565b60405180910390f35b34801561042257600080fd5b5061043d60048036038101906104389190612c1f565b611cc2565b005b34801561044b57600080fd5b5061046660048036038101906104619190612bf2565b611d74565b604051610473919061335e565b60405180910390f35b600047905090565b6060600060045467ffffffffffffffff8111156104a4576104a36139e5565b5b6040519080825280602002602001820160405280156104dd57816020015b6104ca6128a5565b8152602001906001900390816104c25790505b50905060005b600454811015610735576000808281526020019081526020016000206040518060e00160405290816000820160009054906101000a900460ff161515151581526020016000820160019054906101000a900473ffffffffffffffffffffffffffffffffffffffff1673ffffffffffffffffffffffffffffffffffffffff1673ffffffffffffffffffffffffffffffffffffffff168152602001600182015481526020016002820180546105959061387d565b80601f01602080910402602001604051908101604052809291908181526020018280546105c19061387d565b801561060e5780601f106105e35761010080835404028352916020019161060e565b820191906000526020600020905b8154815290600101906020018083116105f157829003601f168201915b5050505050815260200160038201805480602002602001604051908101604052809291908181526020016000905b828210156106e857838290600052602060002001805461065b9061387d565b80601f01602080910402602001604051908101604052809291908181526020018280546106879061387d565b80156106d45780601f106106a9576101008083540402835291602001916106d4565b820191906000526020600020905b8154815290600101906020018083116106b757829003601f168201915b50505050508152602001906001019061063c565b50505050815260200160048201548152602001600582015481525050828281518110610717576107166139b6565b5b6020026020010181905250808061072d906138e0565b9150506104e3565b508091505090565b6060600060045467ffffffffffffffff81111561075d5761075c6139e5565b5b60405190808252806020026020018201604052801561078b5781602001602082028036833780820191505090505b5090506000805b600454811015610892576108438560008084815260200190815260200160002060020180546107c09061387d565b80601f01602080910402602001604051908101604052809291908181526020018280546107ec9061387d565b80156108395780601f1061080e57610100808354040283529160200191610839565b820191906000526020600020905b81548152906001019060200180831161081c57829003601f168201915b5050505050611ec2565b1561087f57600183828151811061085d5761085c6139b6565b5b60200260200101901515908115158152505060018261087c919061369a565b91505b808061088a906138e0565b915050610792565b5060008167ffffffffffffffff8111156108af576108ae6139e5565b5b6040519080825280602002602001820160405280156108e857816020015b6108d56128a5565b8152602001906001900390816108cd5790505b5090506000915060005b600454811015610b745783818151811061090f5761090e6139b6565b5b602002602001015115610b61576000808281526020019081526020016000206040518060e00160405290816000820160009054906101000a900460ff161515151581526020016000820160019054906101000a900473ffffffffffffffffffffffffffffffffffffffff1673ffffffffffffffffffffffffffffffffffffffff1673ffffffffffffffffffffffffffffffffffffffff168152602001600182015481526020016002820180546109c49061387d565b80601f01602080910402602001604051908101604052809291908181526020018280546109f09061387d565b8015610a3d5780601f10610a1257610100808354040283529160200191610a3d565b820191906000526020600020905b815481529060010190602001808311610a2057829003601f168201915b5050505050815260200160038201805480602002602001604051908101604052809291908181526020016000905b82821015610b17578382906000526020600020018054610a8a9061387d565b80601f0160208091040260200160405190810160405280929190818152602001828054610ab69061387d565b8015610b035780601f10610ad857610100808354040283529160200191610b03565b820191906000526020600020905b815481529060010190602001808311610ae657829003601f168201915b505050505081526020019060010190610a6b565b50505050815260200160048201548152602001600582015481525050828481518110610b4657610b456139b6565b5b6020026020010181905250600183610b5e919061369a565b92505b8080610b6c906138e0565b9150506108f2565b50809350505050919050565b610b886128a5565b6000808381526020019081526020016000206040518060e00160405290816000820160009054906101000a900460ff161515151581526020016000820160019054906101000a900473ffffffffffffffffffffffffffffffffffffffff1673ffffffffffffffffffffffffffffffffffffffff1673ffffffffffffffffffffffffffffffffffffffff16815260200160018201548152602001600282018054610c309061387d565b80601f0160208091040260200160405190810160405280929190818152602001828054610c5c9061387d565b8015610ca95780601f10610c7e57610100808354040283529160200191610ca9565b820191906000526020600020905b815481529060010190602001808311610c8c57829003601f168201915b5050505050815260200160038201805480602002602001604051908101604052809291908181526020016000905b82821015610d83578382906000526020600020018054610cf69061387d565b80601f0160208091040260200160405190810160405280929190818152602001828054610d229061387d565b8015610d6f5780601f10610d4457610100808354040283529160200191610d6f565b820191906000526020600020905b815481529060010190602001808311610d5257829003601f168201915b505050505081526020019060010190610cd7565b505050508152602001600482015481526020016005820154815250509050919050565b606060006002600084815260200190815260200160002060010154905060008167ffffffffffffffff811115610ddf57610dde6139e5565b5b604051908082528060200260200182016040528015610e1857816020015b610e056128fa565b815260200190600190039081610dfd5790505b50905060005b82811015610ef3576002600086815260200190815260200160002060000160008281526020019081526020016000206040518060600160405290816000820160009054906101000a900473ffffffffffffffffffffffffffffffffffffffff1673ffffffffffffffffffffffffffffffffffffffff1673ffffffffffffffffffffffffffffffffffffffff16815260200160018201548152602001600282015481525050828281518110610ed557610ed46139b6565b5b60200260200101819052508080610eeb906138e0565b915050610e1e565b508092505050919050565b60026020528060005260406000206000915090508060010154905081565b6004548210610f2a57600080fd5b60008083815260200190815260200160002060000160009054906101000a900460ff16610f5657600080fd5b600080838152602001908152602001600020600301805490508110610f7a57600080fd5b6005543414610f8857600080fd5b6000808381526020019081526020016000206004015442118015610fc057506000808381526020019081526020016000206005015442105b610fc957600080fd5b6003600083815260200190815260200160002060000160003373ffffffffffffffffffffffffffffffffffffffff1673ffffffffffffffffffffffffffffffffffffffff16815260200190815260200160002060009054906101000a900460ff161561103457600080fd5b600060016000848152602001908152602001600020905060008160010154905060405180604001604052803373ffffffffffffffffffffffffffffffffffffffff1681526020018481525082600001600083815260200190815260200160002060008201518160000160006101000a81548173ffffffffffffffffffffffffffffffffffffffff021916908373ffffffffffffffffffffffffffffffffffffffff16021790555060208201518160010155905050600182600101546110f9919061369a565b826001018190555060016003600086815260200190815260200160002060000160003373ffffffffffffffffffffffffffffffffffffffff1673ffffffffffffffffffffffffffffffffffffffff16815260200190815260200160002060006101000a81548160ff02191690831515021790555050505050565b600454821061118157600080fd5b60008083815260200190815260200160002060000160009054906101000a900460ff166111ad57600080fd5b6000808381526020019081526020016000206003018054905081106111d157600080fd5b600080838152602001908152602001600020600401544211801561120957506000808381526020019081526020016000206005015442105b61121257600080fd5b6003600083815260200190815260200160002060000160003373ffffffffffffffffffffffffffffffffffffffff1673ffffffffffffffffffffffffffffffffffffffff16815260200190815260200160002060009054906101000a900460ff161561127d57600080fd5b600060026000848152602001908152602001600020905060008160010154905060405180606001604052803373ffffffffffffffffffffffffffffffffffffffff1681526020018481526020013481525082600001600083815260200190815260200160002060008201518160000160006101000a81548173ffffffffffffffffffffffffffffffffffffffff021916908373ffffffffffffffffffffffffffffffffffffffff160217905550602082015181600101556040820151816002015590505060018260010154611352919061369a565b826001018190555060016003600086815260200190815260200160002060000160003373ffffffffffffffffffffffffffffffffffffffff1673ffffffffffffffffffffffffffffffffffffffff16815260200190815260200160002060006101000a81548160ff02191690831515021790555050505050565b606060008060008481526020019081526020016000206003018054905067ffffffffffffffff811115611402576114016139e5565b5b6040519080825280602002602001820160405280156114305781602001602082028036833780820191505090505b5090506000600160008581526020019081526020016000206000019050611455612931565b60005b600160008781526020019081526020016000206001015481101561153c578260008281526020019081526020016000206040518060400160405290816000820160009054906101000a900473ffffffffffffffffffffffffffffffffffffffff1673ffffffffffffffffffffffffffffffffffffffff1673ffffffffffffffffffffffffffffffffffffffff168152602001600182015481525050915060018483602001518151811061150e5761150d6139b6565b5b60200260200101818151611522919061369a565b915081815250508080611534906138e0565b915050611458565b50829350505050919050565b60016020528060005260406000206000915090508060010154905081565b6060600080838152602001908152602001600020600301805480602002602001604051908101604052809291908181526020016000905b828210156116495783829060005260206000200180546115bc9061387d565b80601f01602080910402602001604051908101604052809291908181526020018280546115e89061387d565b80156116355780601f1061160a57610100808354040283529160200191611635565b820191906000526020600020905b81548152906001019060200180831161161857829003601f168201915b50505050508152602001906001019061159d565b505050509050919050565b60008082815260200190815260200160002060000160019054906101000a900473ffffffffffffffffffffffffffffffffffffffff1673ffffffffffffffffffffffffffffffffffffffff163373ffffffffffffffffffffffffffffffffffffffff16146116c157600080fd5b60008082815260200190815260200160002060000160009054906101000a900460ff166116ed57600080fd5b60008082815260200190815260200160002060050154421161170e57600080fd5b6060600080600061171e856119d6565b8096508194508295505050506000600a60088561173b9190613758565b6117459190613727565b905061175386828588612311565b809450819350505081818561176891906137b2565b611772919061369a565b935060006002856117839190613727565b905061179187828689612578565b80955081945050508281866117a691906137b2565b6117b0919061369a565b9450600085856117c0919061369a565b905060008060008a815260200190815260200160002060000160019054906101000a900473ffffffffffffffffffffffffffffffffffffffff1690506000808273ffffffffffffffffffffffffffffffffffffffff1684604051611823906132e3565b60006040518083038185875af1925050503d8060008114611860576040519150601f19603f3d011682016040523d82523d6000602084013e611865565b606091505b5091509150816118aa576040517f08c379a00000000000000000000000000000000000000000000000000000000081526004016118a19061340a565b60405180910390fd5b60008060008d815260200190815260200160002060000160006101000a81548160ff0219169083151502179055505050505050505050505050565b60006020528060005260406000206000915090508060000160009054906101000a900460ff16908060000160019054906101000a900473ffffffffffffffffffffffffffffffffffffffff16908060010154908060020180546119479061387d565b80601f01602080910402602001604051908101604052809291908181526020018280546119739061387d565b80156119c05780601f10611995576101008083540402835291602001916119c0565b820191906000526020600020905b8154815290600101906020018083116119a357829003601f168201915b5050505050908060040154908060050154905086565b600080606060006119e68561275b565b90506000600260008781526020019081526020016000206000019050600080600554600160008a815260200190815260200160002060010154611a299190613758565b6000808a815260200190815260200160002060010154611a49919061369a565b905060005b600260008a815260200190815260200160002060010154811015611aff57848460008381526020019081526020016000206001015481518110611a9457611a936139b6565b5b6020026020010151611ac8578360008281526020019081526020016000206002015483611ac1919061369a565b9250611aec565b8360008281526020019081526020016000206002015482611ae9919061369a565b91505b8080611af7906138e0565b915050611a4e565b50818185965096509650505050509193909250565b6000804290506040518060e001604052806001151581526020013373ffffffffffffffffffffffffffffffffffffffff168152602001348152602001858152602001600067ffffffffffffffff811115611b7157611b706139e5565b5b604051908082528060200260200182016040528015611ba457816020015b6060815260200190600190039081611b8f5790505b5081526020018281526020018483611bbc919061369a565b815250600080600454815260200190815260200160002060008201518160000160006101000a81548160ff02191690831515021790555060208201518160000160016101000a81548173ffffffffffffffffffffffffffffffffffffffff021916908373ffffffffffffffffffffffffffffffffffffffff160217905550604082015181600101556060820151816002019080519060200190611c60929190612961565b506080820151816003019080519060200190611c7d9291906129e7565b5060a0820151816004015560c082015181600501559050506001600454611ca4919061369a565b6004819055506001600454611cb991906137b2565b91505092915050565b600080600084815260200190815260200160002090508060000160019054906101000a900473ffffffffffffffffffffffffffffffffffffffff1673ffffffffffffffffffffffffffffffffffffffff163373ffffffffffffffffffffffffffffffffffffffff161415611d6f578060030182908060018154018082558091505060019003906000526020600020016000909190919091509080519060200190611d6d929190612961565b505b505050565b606060006001600084815260200190815260200160002060010154905060008167ffffffffffffffff811115611dad57611dac6139e5565b5b604051908082528060200260200182016040528015611de657816020015b611dd3612931565b815260200190600190039081611dcb5790505b50905060005b82811015611eb7576001600086815260200190815260200160002060000160008281526020019081526020016000206040518060400160405290816000820160009054906101000a900473ffffffffffffffffffffffffffffffffffffffff1673ffffffffffffffffffffffffffffffffffffffff1673ffffffffffffffffffffffffffffffffffffffff168152602001600182015481525050828281518110611e9957611e986139b6565b5b60200260200101819052508080611eaf906138e0565b915050611dec565b508092505050919050565b6000808390506000839050815181511015611ee25760009250505061230b565b60005b825181101561207457604160f81b838281518110611f0657611f056139b6565b5b602001015160f81c60f81b7effffffffffffffffffffffffffffffffffffffffffffffffffffffffffffff191610158015611f845750605a60f81b838281518110611f5457611f536139b6565b5b602001015160f81c60f81b7effffffffffffffffffffffffffffffffffffffffffffffffffffffffffffff191611155b15612000576020838281518110611f9e57611f9d6139b6565b5b602001015160f81c60f81b60f81c611fb691906136f0565b60f81b838281518110611fcc57611fcb6139b6565b5b60200101907effffffffffffffffffffffffffffffffffffffffffffffffffffffffffffff1916908160001a905350612061565b828181518110612013576120126139b6565b5b602001015160f81c60f81b838281518110612031576120306139b6565b5b60200101907effffffffffffffffffffffffffffffffffffffffffffffffffffffffffffff1916908160001a9053505b808061206c906138e0565b915050611ee5565b5060005b815181101561220757604160f81b828281518110612099576120986139b6565b5b602001015160f81c60f81b7effffffffffffffffffffffffffffffffffffffffffffffffffffffffffffff1916101580156121175750605a60f81b8282815181106120e7576120e66139b6565b5b602001015160f81c60f81b7effffffffffffffffffffffffffffffffffffffffffffffffffffffffffffff191611155b15612193576020828281518110612131576121306139b6565b5b602001015160f81c60f81b60f81c61214991906136f0565b60f81b82828151811061215f5761215e6139b6565b5b60200101907effffffffffffffffffffffffffffffffffffffffffffffffffffffffffffff1916908160001a9053506121f4565b8181815181106121a6576121a56139b6565b5b602001015160f81c60f81b8282815181106121c4576121c36139b6565b5b60200101907effffffffffffffffffffffffffffffffffffffffffffffffffffffffffffff1916908160001a9053505b80806121ff906138e0565b915050612078565b506000805b8351835161221a91906137b2565b81116123035760006001905060005b85518110156122de57858181518110612245576122446139b6565b5b602001015160f81c60f81b7effffffffffffffffffffffffffffffffffffffffffffffffffffffffffffff191685828561227f919061369a565b815181106122905761228f6139b6565b5b602001015160f81c60f81b7effffffffffffffffffffffffffffffffffffffffffffffffffffffffffffff1916146122cb57600091506122de565b80806122d6906138e0565b915050612229565b5080156122ef576001925050612303565b5080806122fb906138e0565b91505061220c565b508093505050505b92915050565b600080600060026000888152602001908152602001600020600001905060008060008060008b815260200190815260200160002060010154600554600160008d81526020019081526020016000206001015461236d9190613758565b8961237891906137b2565b61238291906137b2565b90506000899050600080600090505b600260008e815260200190815260200160002060010154811015612562578987600083815260200190815260200160002060010154815181106123d7576123d66139b6565b5b60200260200101511561254f578387600083815260200190815260200160002060020154846124069190613758565b6124109190613727565b94508487600083815260200190815260200160002060020154612433919061369a565b9550866000828152602001908152602001600020600201548b61245691906137b2565b9a50848c61246491906137b2565b9b5086600082815260200190815260200160002060000160009054906101000a900473ffffffffffffffffffffffffffffffffffffffff1691506000808373ffffffffffffffffffffffffffffffffffffffff16886040516124c5906132e3565b60006040518083038185875af1925050503d8060008114612502576040519150601f19603f3d011682016040523d82523d6000602084013e612507565b606091505b50915091508161254c576040517f08c379a00000000000000000000000000000000000000000000000000000000081526004016125439061340a565b60405180910390fd5b50505b808061255a906138e0565b915050612391565b508a8a9750975050505050505094509492505050565b60008060006001600088815260200190815260200160002060000190506000806000889050600080600090505b600160008d815260200190815260200160002060010154811015612746578886600083815260200190815260200160002060010154815181106125eb576125ea6139b6565b5b60200260200101511561273357600160008d8152602001908152602001600020600101548361261a9190613727565b93508360055461262a919061369a565b94506005548a61263a91906137b2565b9950838b61264891906137b2565b9a5085600082815260200190815260200160002060000160009054906101000a900473ffffffffffffffffffffffffffffffffffffffff1691506000808373ffffffffffffffffffffffffffffffffffffffff16876040516126a9906132e3565b60006040518083038185875af1925050503d80600081146126e6576040519150601f19603f3d011682016040523d82523d6000602084013e6126eb565b606091505b509150915081612730576040517f08c379a00000000000000000000000000000000000000000000000000000000081526004016127279061340a565b60405180910390fd5b50505b808061273e906138e0565b9150506125a5565b50898996509650505050505094509492505050565b606060008060008481526020019081526020016000206003018054905067ffffffffffffffff811115612791576127906139e5565b5b6040519080825280602002602001820160405280156127bf5781602001602082028036833780820191505090505b50905060006127cd846113cc565b90506000805b825181101561282f57818382815181106127f0576127ef6139b6565b5b6020026020010151111561281c57828181518110612811576128106139b6565b5b602002602001015191505b8080612827906138e0565b9150506127d3565b5060005b825181101561289957818382815181106128505761284f6139b6565b5b60200260200101511415612886576001848281518110612873576128726139b6565b5b6020026020010190151590811515815250505b8080612891906138e0565b915050612833565b50829350505050919050565b6040518060e00160405280600015158152602001600073ffffffffffffffffffffffffffffffffffffffff16815260200160008152602001606081526020016060815260200160008152602001600081525090565b6040518060600160405280600073ffffffffffffffffffffffffffffffffffffffff16815260200160008152602001600081525090565b6040518060400160405280600073ffffffffffffffffffffffffffffffffffffffff168152602001600081525090565b82805461296d9061387d565b90600052602060002090601f01602090048101928261298f57600085556129d6565b82601f106129a857805160ff19168380011785556129d6565b828001600101855582156129d6579182015b828111156129d55782518255916020019190600101906129ba565b5b5090506129e39190612a47565b5090565b828054828255906000526020600020908101928215612a36579160200282015b82811115612a35578251829080519060200190612a25929190612961565b5091602001919060010190612a07565b5b509050612a439190612a64565b5090565b5b80821115612a60576000816000905550600101612a48565b5090565b5b80821115612a845760008181612a7b9190612a88565b50600101612a65565b5090565b508054612a949061387d565b6000825580601f10612aa65750612ac5565b601f016020900490600052602060002090810190612ac49190612a47565b5b50565b6000612adb612ad6846134ca565b6134a5565b905082815260208101848484011115612af757612af6613a19565b5b612b0284828561383b565b509392505050565b600082601f830112612b1f57612b1e613a14565b5b8135612b2f848260208601612ac8565b91505092915050565b600081359050612b4781613a65565b92915050565b600060208284031215612b6357612b62613a23565b5b600082013567ffffffffffffffff811115612b8157612b80613a1e565b5b612b8d84828501612b0a565b91505092915050565b60008060408385031215612bad57612bac613a23565b5b600083013567ffffffffffffffff811115612bcb57612bca613a1e565b5b612bd785828601612b0a565b9250506020612be885828601612b38565b9150509250929050565b600060208284031215612c0857612c07613a23565b5b6000612c1684828501612b38565b91505092915050565b60008060408385031215612c3657612c35613a23565b5b6000612c4485828601612b38565b925050602083013567ffffffffffffffff811115612c6557612c64613a1e565b5b612c7185828601612b0a565b9150509250929050565b60008060408385031215612c9257612c91613a23565b5b6000612ca085828601612b38565b9250506020612cb185828601612b38565b9150509250929050565b6000612cc78383613038565b60208301905092915050565b6000612cdf8383613056565b905092915050565b6000612cf3838361310e565b60608301905092915050565b6000612d0b8383613150565b905092915050565b6000612d1f8383613296565b60408301905092915050565b6000612d3783836132c5565b60208301905092915050565b612d4c816137e6565b82525050565b612d5b816137e6565b82525050565b6000612d6c8261355b565b612d7681856135f6565b9350612d81836134fb565b8060005b83811015612db2578151612d998882612cbb565b9750612da4836135a8565b925050600181019050612d85565b5085935050505092915050565b6000612dca82613566565b612dd48185613607565b935083602082028501612de68561350b565b8060005b85811015612e225784840389528151612e038582612cd3565b9450612e0e836135b5565b925060208a01995050600181019050612dea565b50829750879550505050505092915050565b6000612e3f82613566565b612e498185613618565b935083602082028501612e5b8561350b565b8060005b85811015612e975784840389528151612e788582612cd3565b9450612e83836135b5565b925060208a01995050600181019050612e5f565b50829750879550505050505092915050565b6000612eb482613571565b612ebe8185613629565b9350612ec98361351b565b8060005b83811015612efa578151612ee18882612ce7565b9750612eec836135c2565b925050600181019050612ecd565b5085935050505092915050565b6000612f128261357c565b612f1c818561363a565b935083602082028501612f2e8561352b565b8060005b85811015612f6a5784840389528151612f4b8582612cff565b9450612f56836135cf565b925060208a01995050600181019050612f32565b50829750879550505050505092915050565b6000612f8782613587565b612f91818561364b565b9350612f9c8361353b565b8060005b83811015612fcd578151612fb48882612d13565b9750612fbf836135dc565b925050600181019050612fa0565b5085935050505092915050565b6000612fe582613592565b612fef818561365c565b9350612ffa8361354b565b8060005b8381101561302b5781516130128882612d2b565b975061301d836135e9565b925050600181019050612ffe565b5085935050505092915050565b613041816137f8565b82525050565b613050816137f8565b82525050565b60006130618261359d565b61306b8185613678565b935061307b81856020860161384a565b61308481613a28565b840191505092915050565b600061309a8261359d565b6130a48185613689565b93506130b481856020860161384a565b6130bd81613a28565b840191505092915050565b60006130d5601483613689565b91506130e082613a39565b602082019050919050565b60006130f860008361366d565b915061310382613a62565b600082019050919050565b6060820160008201516131246000850182612d43565b50602082015161313760208501826132c5565b50604082015161314a60408501826132c5565b50505050565b600060e0830160008301516131686000860182613038565b50602083015161317b6020860182612d43565b50604083015161318e60408601826132c5565b50606083015184820360608601526131a68282613056565b915050608083015184820360808601526131c08282612dbf565b91505060a08301516131d560a08601826132c5565b5060c08301516131e860c08601826132c5565b508091505092915050565b600060e08301600083015161320b6000860182613038565b50602083015161321e6020860182612d43565b50604083015161323160408601826132c5565b50606083015184820360608601526132498282613056565b915050608083015184820360808601526132638282612dbf565b91505060a083015161327860a08601826132c5565b5060c083015161328b60c08601826132c5565b508091505092915050565b6040820160008201516132ac6000850182612d43565b5060208201516132bf60208501826132c5565b50505050565b6132ce81613824565b82525050565b6132dd81613824565b82525050565b60006132ee826130eb565b9150819050919050565b600060208201905081810360008301526133128184612e34565b905092915050565b600060208201905081810360008301526133348184612ea9565b905092915050565b600060208201905081810360008301526133568184612f07565b905092915050565b600060208201905081810360008301526133788184612f7c565b905092915050565b6000602082019050818103600083015261339a8184612fda565b905092915050565b600060c0820190506133b76000830189613047565b6133c46020830188612d52565b6133d160408301876132d4565b81810360608301526133e3818661308f565b90506133f260808301856132d4565b6133ff60a08301846132d4565b979650505050505050565b60006020820190508181036000830152613423816130c8565b9050919050565b6000602082019050818103600083015261344481846131f3565b905092915050565b600060208201905061346160008301846132d4565b92915050565b600060608201905061347c60008301866132d4565b61348960208301856132d4565b818103604083015261349b8184612d61565b9050949350505050565b60006134af6134c0565b90506134bb82826138af565b919050565b6000604051905090565b600067ffffffffffffffff8211156134e5576134e46139e5565b5b6134ee82613a28565b9050602081019050919050565b6000819050602082019050919050565b6000819050602082019050919050565b6000819050602082019050919050565b6000819050602082019050919050565b6000819050602082019050919050565b6000819050602082019050919050565b600081519050919050565b600081519050919050565b600081519050919050565b600081519050919050565b600081519050919050565b600081519050919050565b600081519050919050565b6000602082019050919050565b6000602082019050919050565b6000602082019050919050565b6000602082019050919050565b6000602082019050919050565b6000602082019050919050565b600082825260208201905092915050565b600082825260208201905092915050565b600082825260208201905092915050565b600082825260208201905092915050565b600082825260208201905092915050565b600082825260208201905092915050565b600082825260208201905092915050565b600081905092915050565b600082825260208201905092915050565b600082825260208201905092915050565b60006136a582613824565b91506136b083613824565b9250827fffffffffffffffffffffffffffffffffffffffffffffffffffffffffffffffff038211156136e5576136e4613929565b5b828201905092915050565b60006136fb8261382e565b91506137068361382e565b92508260ff0382111561371c5761371b613929565b5b828201905092915050565b600061373282613824565b915061373d83613824565b92508261374d5761374c613958565b5b828204905092915050565b600061376382613824565b915061376e83613824565b9250817fffffffffffffffffffffffffffffffffffffffffffffffffffffffffffffffff04831182151516156137a7576137a6613929565b5b828202905092915050565b60006137bd82613824565b91506137c883613824565b9250828210156137db576137da613929565b5b828203905092915050565b60006137f182613804565b9050919050565b60008115159050919050565b600073ffffffffffffffffffffffffffffffffffffffff82169050919050565b6000819050919050565b600060ff82169050919050565b82818337600083830152505050565b60005b8381101561386857808201518184015260208101905061384d565b83811115613877576000848401525b50505050565b6000600282049050600182168061389557607f821691505b602082108114156138a9576138a8613987565b5b50919050565b6138b882613a28565b810181811067ffffffffffffffff821117156138d7576138d66139e5565b5b80604052505050565b60006138eb82613824565b91507fffffffffffffffffffffffffffffffffffffffffffffffffffffffffffffffff82141561391e5761391d613929565b5b600182019050919050565b7f4e487b7100000000000000000000000000000000000000000000000000000000600052601160045260246000fd5b7f4e487b7100000000000000000000000000000000000000000000000000000000600052601260045260246000fd5b7f4e487b7100000000000000000000000000000000000000000000000000000000600052602260045260246000fd5b7f4e487b7100000000000000000000000000000000000000000000000000000000600052603260045260246000fd5b7f4e487b7100000000000000000000000000000000000000000000000000000000600052604160045260246000fd5b600080fd5b600080fd5b600080fd5b600080fd5b6000601f19601f8301169050919050565b7f4661696c656420746f2073656e64204574686572000000000000000000000000600082015250565b50565b613a6e81613824565b8114613a7957600080fd5b5056fea26469706673582212201a6e2088a17eab12f06c6f14b57044797b8a5a6d4a8ac5b3e53cbfde20041d0664736f6c63430008070033",
  "immutableReferences": {},
  "source": "pragma solidity ^0.8.7;\n \ncontract ACME {\n\n    struct Poll // Enquete\n    {\n        bool open;\n        address creator; // Criador da enquete\n        uint initial_amount; // Montante inicial na enquete\n        string question; // A pergunta da enquete\n        string[] options; // As opes de resposta\n        uint time_start; // Timestamp de incio\n        uint time_end; // Timestamp de fim\n    }\n\n    struct Vote // Voto\n    {\n        address voter; // Usurio eleitor\n        uint id_option; // Opo em que o usurio votou\n    }\n\n    struct Bet // Aposta\n    {\n        address better; // Usurio apostador\n        uint id_option; // Opo em que o usurio apostou\n        uint value; // Valor da aposta\n    }\n\n\n    // Estruturas especficas para permitir o armazenamento\n    struct VoteStorage {\n        mapping(uint => Vote) stored_votes;\n        uint n_votes;\n    }\n\n    struct BetStorage {\n        mapping(uint => Bet) stored_bets;\n        uint n_bets;\n    }\n\n    struct ParticipantsRecord {\n        mapping(address => bool) participants;\n    }\n\n    mapping(uint => Poll) public polls;\n    mapping(uint => VoteStorage) public votes;\n    mapping(uint => BetStorage) public bets;\n    mapping(uint => ParticipantsRecord) private participations;\n    uint n_polls = 0; // o identificador das enquetes  um contador\n\n    uint vote_fee = 1000000000000000;\n\n\n    function createPoll(string memory _question, uint _valid_period) public payable \n        returns (uint) {\n        uint ts = block.timestamp;\n        polls[n_polls] = Poll({open: true, creator: msg.sender, initial_amount: msg.value, question: _question,\n                               options: new string[](0), time_start: ts, time_end: ts + _valid_period});\n        n_polls = n_polls + 1;\n        return (n_polls - 1);\n    }\n\n\n    function getPoll(uint _id) public view\n        returns (Poll memory) {\n        return polls[_id];\n    }\n\n    function getPolls() public view \n        returns (Poll[] memory) {\n        Poll[] memory current_polls = new Poll[](n_polls);\n\n        for (uint i = 0; i < n_polls; i++) {\n            current_polls[i] = polls[i];\n        }\n\n        return current_polls;\n    }\n\n    // Encontramos essa funo para achar uma palavra em um string\n    function contains (string memory what, string memory where) private pure returns (bool) {\n        bytes memory whatBytes = bytes (what);\n        bytes memory whereBytes = bytes (where);\n\n        if (whereBytes.length < whatBytes.length) {\n            return false;\n        }\n\n        // Tratar como lowercase\n\n        for (uint i = 0; i < whatBytes.length; i++) {\n\t\t\tif ((whatBytes[i] >= 0x41) && (whatBytes[i] <= 0x5A)) {\n\t\t\t\twhatBytes[i] = bytes1(uint8(whatBytes[i]) + 0x20);\n\t\t\t} else {\n\t\t\t\twhatBytes[i] = whatBytes[i];\n\t\t\t}\n\t\t}\n\n        for (uint i = 0; i < whereBytes.length; i++) {\n\t\t\tif ((whereBytes[i] >= 0x41) && (whereBytes[i] <= 0x5A)) {\n\t\t\t\twhereBytes[i] = bytes1(uint8(whereBytes[i]) + 0x20);\n\t\t\t} else {\n\t\t\t\twhereBytes[i] = whereBytes[i];\n\t\t\t}\n\t\t}\n\n\n        bool found = false;\n\n\n        for (uint i = 0; i <= whereBytes.length - whatBytes.length; i++) {\n            bool flag = true;\n            for (uint j = 0; j < whatBytes.length; j++)\n                if (whereBytes [i + j] != whatBytes [j]) {\n                    flag = false;\n                    break;\n                }\n            if (flag) {\n                found = true;\n                break;\n            }\n        }\n    \n        return found;\n    }\n\n    function searchPollsWithWord(string memory word) public view \n        returns (Poll[] memory) {\n        bool[] memory polls_containing = new bool[](n_polls);\n\n        uint idx = 0;\n\n        for (uint i = 0; i < n_polls; i++) {\n            if (contains(word, polls[i].question)) {\n                polls_containing[i] = true;\n                idx += 1;\n            }\n        }\n\n        Poll[] memory result_polls = new Poll[](idx);\n\n        idx = 0;\n\n        for (uint i = 0; i < n_polls; i++) {\n            if (polls_containing[i]) {\n                result_polls[idx] = polls[i];\n                idx += 1;\n            }\n        }\n        return result_polls;\n    }\n\n\n\n    function addOption(uint _id, string memory _option) public {\n        Poll storage poll = polls[_id];\n        if (msg.sender == poll.creator) {\n            poll.options.push(_option);\n        }\n    }\n\n\n    function getOptions(uint _id) public view\n        returns (string[] memory) {\n        return polls[_id].options;\n    }\n\n\n    function castVote(uint _id_poll, uint _id_option) public payable {\n        require(_id_poll < n_polls);                                // enquete existe\n        require(polls[_id_poll].open);                              // enquete aberta\n        require(_id_option < polls[_id_poll].options.length);       // opo de resposta existe\n        require(msg.value == vote_fee);                             // pagando a taxa para votos\n        require(block.timestamp > polls[_id_poll].time_start && block.timestamp < polls[_id_poll].time_end);\n                                                                    // voto no perodo de tempo aceitvel\n        require(!participations[_id_poll].participants[msg.sender]);// usurio no votou/apostou\n\n        VoteStorage storage vote_storage = votes[_id_poll];\n        uint idx = vote_storage.n_votes;\n        vote_storage.stored_votes[idx] = Vote({voter: msg.sender, id_option: _id_option});\n        vote_storage.n_votes = vote_storage.n_votes + 1;\n\n        participations[_id_poll].participants[msg.sender] = true;\n    }\n\n\n    function getVotes(uint _id_poll) public view \n        returns (Vote[] memory) {\n\n        uint n_votes = votes[_id_poll].n_votes;\n        Vote[] memory vote_result = new Vote[](n_votes);\n\n        for (uint i = 0; i < n_votes; i++) {\n            vote_result[i] = votes[_id_poll].stored_votes[i];\n        }\n\n        return vote_result;\n    }\n\n\n    function placeBet(uint _id_poll, uint _id_option) \n        public payable {\n        require(_id_poll < n_polls);                                // enquete existe\n        require(polls[_id_poll].open);                              // enquete aberta\n        require(_id_option < polls[_id_poll].options.length);       // opo de resposta existe\n        require(block.timestamp > polls[_id_poll].time_start && block.timestamp < polls[_id_poll].time_end);\n                                                                    // aposta no periodo aceitvel\n        require(!participations[_id_poll].participants[msg.sender]);// usurio no votou/apostou ainda\n\n        BetStorage storage bet_storage = bets[_id_poll];\n        uint idx = bet_storage.n_bets;\n        bet_storage.stored_bets[idx] = Bet({better: msg.sender, id_option: _id_option, value: msg.value});\n        bet_storage.n_bets = bet_storage.n_bets + 1;\n\n        participations[_id_poll].participants[msg.sender] = true;\n    }\n\n\n    function getBets(uint _id_poll) public view \n        returns (Bet[] memory) {\n \n        uint n_bets = bets[_id_poll].n_bets;\n        Bet[] memory bets_array = new Bet[](n_bets);\n\n        for (uint i = 0; i < n_bets; i++) {\n            bets_array[i] = bets[_id_poll].stored_bets[i];\n        }\n\n        return bets_array;\n    }\n\n\n    // Calcula os votos para cada opo\n    function tallyVotes(uint _id_poll) public view \n        returns (uint[] memory) {\n        uint[] memory votes_total = new uint[](polls[_id_poll].options.length);\n        mapping(uint => Vote) storage votes_in_storage = votes[_id_poll].stored_votes;\n        Vote memory vote;\n\n        for (uint i = 0; i < votes[_id_poll].n_votes; i++) {\n            vote = votes_in_storage[i];\n            votes_total[vote.id_option] += 1;\n        }\n\n        return votes_total;\n    }\n\n    // Resultado da enquete\n    // Retorna um array de booleanos, em que uma posio  true\n    // se a opo correspondente tem o nmero mximo de votos\n    function getPollResult(uint _id_poll) private view \n        returns (bool[] memory) {\n        bool[] memory result = new bool[](polls[_id_poll].options.length);\n\n        uint[] memory votes_total = tallyVotes(_id_poll);\n\n        uint max = 0;\n\n        for (uint i = 0; i < votes_total.length; i++) {\n            if (votes_total[i] > max) {\n                max = votes_total[i];\n            }\n        }\n        for (uint i = 0; i < votes_total.length; i++) {\n            if (votes_total[i] == max) {\n                result[i] = true;\n            }\n        }\n\n        return result;\n    }\n\n\n    function computePrizes(uint _id_poll) public view \n        returns (uint, uint, bool[] memory) {\n        bool[] memory result = getPollResult(_id_poll);\n\n        mapping(uint => Bet) storage bets_in_storage = bets[_id_poll].stored_bets;\n\n        // dinheiro dos perdedores, que ser embolsado pelos outros participantes\n        uint prize_money = 0; \n\n        // dinheiro a ser reembolsado (inicial + taxas dos votos + apostas dos vencedores)\n        uint refund_money = polls[_id_poll].initial_amount + votes[_id_poll].n_votes * vote_fee;\n\n        for (uint i = 0; i < bets[_id_poll].n_bets; i++) {\n            if (!result[bets_in_storage[i].id_option]) {\n                prize_money += bets_in_storage[i].value;\n            } else {\n                refund_money += bets_in_storage[i].value;\n            }\n        }\n\n        return (prize_money, refund_money, result);\n    }\n\n\n    function payReward(uint _id_poll, uint prize_money, uint refund_money, bool[] memory result) private \n        returns (uint, uint) {\n\n        mapping(uint => Bet) storage bets_in_storage = bets[_id_poll].stored_bets;\n        uint value_to_transfer;\n        uint reward;\n\n        // Queremos que os que apostaram mais sejam mais recompensados\n        // total_bet_winners  o total apostado pelos vencedores\n        uint total_bet_winners = refund_money - votes[_id_poll].n_votes * vote_fee - polls[_id_poll].initial_amount;\n\n        uint total_prize_money = prize_money;\n        address payable to;\n\n        for (uint i = 0; i < bets[_id_poll].n_bets; i++) {\n            if (result[bets_in_storage[i].id_option]) {\n                // Os vencedores recebem a aposta de volta, mais um valor de total_prize_money,\n                // proporcional ao que apostaram\n                reward = (total_prize_money * bets_in_storage[i].value) / total_bet_winners;\n                value_to_transfer = bets_in_storage[i].value + reward;\n\n                refund_money -= bets_in_storage[i].value;\n                prize_money -= reward;\n\n                // Mandando para cada um dos apostadores\n                to = payable(bets_in_storage[i].better);\n                (bool sent, bytes memory data) = to.call{value: value_to_transfer}(\"\");\n                require(sent, \"Failed to send Ether\");\n            }\n        }\n\n        return (prize_money, refund_money);\n    }\n\n\n    function payVoters(uint _id_poll, uint prize_money, uint refund_money, bool[] memory result) private\n        returns (uint, uint) {\n\n        mapping(uint => Vote) storage votes_in_storage = votes[_id_poll].stored_votes;\n        uint value_to_transfer;\n        uint reward;\n\n        uint total_prize_money = prize_money;\n        address payable to;\n\n        for (uint i = 0; i < votes[_id_poll].n_votes; i++) {\n            if (result[votes_in_storage[i].id_option]) {\n                // Os usurios que votaram simplesmente recebem o dinheiro de volta,\n                // mais um pouco do montante dos que perderam\n                reward = total_prize_money / votes[_id_poll].n_votes;\n                value_to_transfer = vote_fee + reward;\n\n                refund_money -= vote_fee;\n                prize_money -= reward;\n                \n                // Mandando para cada um dos eleitores\n                to = payable(votes_in_storage[i].voter);\n                (bool sent, bytes memory data) = to.call{value: value_to_transfer}(\"\");\n                require(sent, \"Failed to send Ether\");\n            }\n        }\n\n        return (prize_money, refund_money);\n    }\n\n    function closePoll(uint _id_poll) public {\n        require(msg.sender == polls[_id_poll].creator);\n        require(polls[_id_poll].open);\n        require(block.timestamp > polls[_id_poll].time_end);\n\n        bool[] memory result;\n\n        uint prize_money;\n        uint refund_money;\n        uint money_left;\n\n        (prize_money, refund_money, result) = computePrizes(_id_poll);\n\n        // Tomamos cuidado para que nenhum dinheiro se perca com as divises\n\n        uint bettors_cut = (prize_money * 8) / 10; // 80% do dinheiro prmio vai para os apostadores\n        (money_left, refund_money) = payReward(_id_poll, bettors_cut, refund_money, result);\n        prize_money = prize_money - bettors_cut + money_left;\n\n        uint voters_cut = (prize_money) / 2; // O resto (20%)  dividido entre os usurios que votaram e o criador\n        (money_left, refund_money) = payVoters(_id_poll, voters_cut, refund_money, result);\n        prize_money = prize_money - voters_cut + money_left;\n\n        uint creators_cut = refund_money + prize_money;\n\n        // Mandando para o criador\n        address to = payable(polls[_id_poll].creator);\n        (bool sent, bytes memory data) = to.call{value: creators_cut}(\"\");\n        require(sent, \"Failed to send Ether\");\n\n        polls[_id_poll].open = false;\n    }\n\n    \n    function getBalance() public view returns (uint) {\n        return address(this).balance;\n    }\n}\n",
  "sourcePath": "/home/hobs/Documents/CCO/2021_2/Cripto/acme/contracts/ACME.sol",
  "compiler": {
    "name": "solc",
    "version": "0.8.7+commit.e28d00a7.Emscripten.clang"
  },
  "schemaVersion": "3.4.6",
  "updatedAt": "2022-03-14T02:44:54.453Z",
  "networkType": "ethereum",
  "devdoc": {
    "kind": "dev",
    "methods": {},
    "version": 1
  },
  "userdoc": {
    "kind": "user",
    "methods": {},
    "version": 1
  }
}