{
  "contractName": "ACME",
  "abi": [
    {
      "inputs": [
        {
          "internalType": "uint256",
          "name": "",
          "type": "uint256"
        }
      ],
      "name": "bets",
      "outputs": [
        {
          "internalType": "uint256",
          "name": "n_bets",
          "type": "uint256"
        }
      ],
      "stateMutability": "view",
      "type": "function"
    },
    {
      "inputs": [
        {
          "internalType": "uint256",
          "name": "",
          "type": "uint256"
        }
      ],
      "name": "polls",
      "outputs": [
        {
          "internalType": "bool",
          "name": "open",
          "type": "bool"
        },
        {
          "internalType": "address",
          "name": "creator",
          "type": "address"
        },
        {
          "internalType": "uint256",
          "name": "initial_amount",
          "type": "uint256"
        },
        {
          "internalType": "uint256",
          "name": "vote_fee",
          "type": "uint256"
        },
        {
          "internalType": "string",
          "name": "question",
          "type": "string"
        },
        {
          "internalType": "uint256",
          "name": "time_start",
          "type": "uint256"
        },
        {
          "internalType": "uint256",
          "name": "time_end",
          "type": "uint256"
        }
      ],
      "stateMutability": "view",
      "type": "function"
    },
    {
      "inputs": [
        {
          "internalType": "uint256",
          "name": "",
          "type": "uint256"
        }
      ],
      "name": "votes",
      "outputs": [
        {
          "internalType": "uint256",
          "name": "n_votes",
          "type": "uint256"
        }
      ],
      "stateMutability": "view",
      "type": "function"
    },
    {
      "inputs": [
        {
          "internalType": "uint256",
          "name": "_vote_fee",
          "type": "uint256"
        },
        {
          "internalType": "string",
          "name": "_question",
          "type": "string"
        },
        {
          "internalType": "uint256",
          "name": "_valid_period",
          "type": "uint256"
        }
      ],
      "name": "createPoll",
      "outputs": [
        {
          "components": [
            {
              "internalType": "bool",
              "name": "open",
              "type": "bool"
            },
            {
              "internalType": "address",
              "name": "creator",
              "type": "address"
            },
            {
              "internalType": "uint256",
              "name": "initial_amount",
              "type": "uint256"
            },
            {
              "internalType": "uint256",
              "name": "vote_fee",
              "type": "uint256"
            },
            {
              "internalType": "string",
              "name": "question",
              "type": "string"
            },
            {
              "internalType": "string[]",
              "name": "options",
              "type": "string[]"
            },
            {
              "internalType": "uint256",
              "name": "time_start",
              "type": "uint256"
            },
            {
              "internalType": "uint256",
              "name": "time_end",
              "type": "uint256"
            }
          ],
          "internalType": "struct ACME.Poll",
          "name": "",
          "type": "tuple"
        }
      ],
      "stateMutability": "payable",
      "type": "function"
    },
    {
      "inputs": [
        {
          "internalType": "uint256",
          "name": "_id",
          "type": "uint256"
        }
      ],
      "name": "getPoll",
      "outputs": [
        {
          "components": [
            {
              "internalType": "bool",
              "name": "open",
              "type": "bool"
            },
            {
              "internalType": "address",
              "name": "creator",
              "type": "address"
            },
            {
              "internalType": "uint256",
              "name": "initial_amount",
              "type": "uint256"
            },
            {
              "internalType": "uint256",
              "name": "vote_fee",
              "type": "uint256"
            },
            {
              "internalType": "string",
              "name": "question",
              "type": "string"
            },
            {
              "internalType": "string[]",
              "name": "options",
              "type": "string[]"
            },
            {
              "internalType": "uint256",
              "name": "time_start",
              "type": "uint256"
            },
            {
              "internalType": "uint256",
              "name": "time_end",
              "type": "uint256"
            }
          ],
          "internalType": "struct ACME.Poll",
          "name": "",
          "type": "tuple"
        }
      ],
      "stateMutability": "view",
      "type": "function"
    },
    {
      "inputs": [],
      "name": "getPolls",
      "outputs": [
        {
          "components": [
            {
              "internalType": "bool",
              "name": "open",
              "type": "bool"
            },
            {
              "internalType": "address",
              "name": "creator",
              "type": "address"
            },
            {
              "internalType": "uint256",
              "name": "initial_amount",
              "type": "uint256"
            },
            {
              "internalType": "uint256",
              "name": "vote_fee",
              "type": "uint256"
            },
            {
              "internalType": "string",
              "name": "question",
              "type": "string"
            },
            {
              "internalType": "string[]",
              "name": "options",
              "type": "string[]"
            },
            {
              "internalType": "uint256",
              "name": "time_start",
              "type": "uint256"
            },
            {
              "internalType": "uint256",
              "name": "time_end",
              "type": "uint256"
            }
          ],
          "internalType": "struct ACME.Poll[]",
          "name": "",
          "type": "tuple[]"
        }
      ],
      "stateMutability": "view",
      "type": "function"
    },
    {
      "inputs": [
        {
          "internalType": "uint256",
          "name": "_id",
          "type": "uint256"
        },
        {
          "internalType": "string",
          "name": "_option",
          "type": "string"
        }
      ],
      "name": "addOption",
      "outputs": [],
      "stateMutability": "nonpayable",
      "type": "function"
    },
    {
      "inputs": [
        {
          "internalType": "uint256",
          "name": "_id",
          "type": "uint256"
        }
      ],
      "name": "getOptions",
      "outputs": [
        {
          "internalType": "string[]",
          "name": "",
          "type": "string[]"
        }
      ],
      "stateMutability": "view",
      "type": "function"
    },
    {
      "inputs": [
        {
          "internalType": "uint256",
          "name": "_id_poll",
          "type": "uint256"
        },
        {
          "internalType": "uint256",
          "name": "_id_option",
          "type": "uint256"
        }
      ],
      "name": "castVote",
      "outputs": [],
      "stateMutability": "payable",
      "type": "function"
    },
    {
      "inputs": [
        {
          "internalType": "uint256",
          "name": "_id_poll",
          "type": "uint256"
        }
      ],
      "name": "getVotes",
      "outputs": [
        {
          "components": [
            {
              "internalType": "address",
              "name": "voter",
              "type": "address"
            },
            {
              "internalType": "uint256",
              "name": "id_option",
              "type": "uint256"
            }
          ],
          "internalType": "struct ACME.Vote[]",
          "name": "",
          "type": "tuple[]"
        }
      ],
      "stateMutability": "view",
      "type": "function"
    },
    {
      "inputs": [
        {
          "internalType": "uint256",
          "name": "_id_poll",
          "type": "uint256"
        },
        {
          "internalType": "uint256",
          "name": "_id_option",
          "type": "uint256"
        }
      ],
      "name": "placeBet",
      "outputs": [],
      "stateMutability": "payable",
      "type": "function"
    },
    {
      "inputs": [
        {
          "internalType": "uint256",
          "name": "_id_poll",
          "type": "uint256"
        }
      ],
      "name": "getBets",
      "outputs": [
        {
          "components": [
            {
              "internalType": "address",
              "name": "better",
              "type": "address"
            },
            {
              "internalType": "uint256",
              "name": "id_option",
              "type": "uint256"
            },
            {
              "internalType": "uint256",
              "name": "value",
              "type": "uint256"
            }
          ],
          "internalType": "struct ACME.Bet[]",
          "name": "",
          "type": "tuple[]"
        }
      ],
      "stateMutability": "view",
      "type": "function"
    },
    {
      "inputs": [
        {
          "internalType": "uint256",
          "name": "_id_poll",
          "type": "uint256"
        }
      ],
      "name": "tallyVotes",
      "outputs": [
        {
          "internalType": "uint256[]",
          "name": "",
          "type": "uint256[]"
        }
      ],
      "stateMutability": "view",
      "type": "function"
    },
    {
      "inputs": [
        {
          "internalType": "uint256",
          "name": "_id_poll",
          "type": "uint256"
        }
      ],
      "name": "getPollResult",
      "outputs": [
        {
          "internalType": "bool[]",
          "name": "",
          "type": "bool[]"
        }
      ],
      "stateMutability": "view",
      "type": "function"
    },
    {
      "inputs": [
        {
          "internalType": "uint256",
          "name": "_id_poll",
          "type": "uint256"
        }
      ],
      "name": "computePrizes",
      "outputs": [
        {
          "internalType": "uint256",
          "name": "",
          "type": "uint256"
        },
        {
          "internalType": "uint256",
          "name": "",
          "type": "uint256"
        },
        {
          "internalType": "bool[]",
          "name": "",
          "type": "bool[]"
        }
      ],
      "stateMutability": "view",
      "type": "function"
    },
    {
      "inputs": [
        {
          "internalType": "uint256",
          "name": "_id_poll",
          "type": "uint256"
        }
      ],
      "name": "closePoll",
      "outputs": [],
      "stateMutability": "nonpayable",
      "type": "function"
    },
    {
      "inputs": [],
      "name": "getBalance",
      "outputs": [
        {
          "internalType": "uint256",
          "name": "",
          "type": "uint256"
        }
      ],
      "stateMutability": "view",
      "type": "function"
    }
  ],
  "bytecode": "0x6080604052600060045534801561001557600080fd5b506134bc806100256000396000f3fe6080604052600436106100fe5760003560e01c80634d318b0e11610095578063ac2f007411610064578063ac2f007414610358578063b885528c1461039b578063c888fcc3146103da578063ea57d5d414610417578063ff98109914610440576100fe565b80634d318b0e146102785780635df81330146102b55780638915b3fb146102f25780639534e6371461032f576100fe565b806322af00fa116100d157806322af00fa146101d3578063236e1b93146102105780632c0a3f89146102405780634afe62b51461025c576100fe565b806312065fe014610103578063120fe89b1461012e5780631a8cbcaa146101595780631ccf695514610196575b600080fd5b34801561010f57600080fd5b5061011861047d565b6040516101259190612e9a565b60405180910390f35b34801561013a57600080fd5b50610143610485565b6040516101509190612d7c565b60405180910390f35b34801561016557600080fd5b50610180600480360381019061017b9190612579565b610749565b60405161018d9190612e78565b60405180910390f35b3480156101a257600080fd5b506101bd60048036038101906101b89190612579565b61097a565b6040516101ca9190612d5a565b60405180910390f35b3480156101df57600080fd5b506101fa60048036038101906101f59190612579565b610ad2565b6040516102079190612e9a565b60405180910390f35b61022a60048036038101906102259190612602565b610af0565b6040516102379190612e78565b60405180910390f35b61025a60048036038101906102559190612671565b610ed8565b005b61027660048036038101906102719190612671565b611142565b005b34801561028457600080fd5b5061029f600480360381019061029a9190612579565b61139b565b6040516102ac9190612dc0565b60405180910390f35b3480156102c157600080fd5b506102dc60048036038101906102d79190612579565b611517565b6040516102e99190612e9a565b60405180910390f35b3480156102fe57600080fd5b5061031960048036038101906103149190612579565b611535565b6040516103269190612d38565b60405180910390f35b34801561033b57600080fd5b5061035660048036038101906103519190612579565b611623565b005b34801561036457600080fd5b5061037f600480360381019061037a9190612579565b6118b4565b6040516103929796959493929190612de2565b60405180910390f35b3480156103a757600080fd5b506103c260048036038101906103bd9190612579565b6119ab565b6040516103d193929190612eb5565b60405180910390f35b3480156103e657600080fd5b5061040160048036038101906103fc9190612579565b611afc565b60405161040e9190612d16565b60405180910390f35b34801561042357600080fd5b5061043e600480360381019061043991906125a6565b611c46565b005b34801561044c57600080fd5b5061046760048036038101906104629190612579565b611cf8565b6040516104749190612d9e565b60405180910390f35b600047905090565b6060600060045467ffffffffffffffff8111156104a5576104a46133ef565b5b6040519080825280602002602001820160405280156104de57816020015b6104cb6122c9565b8152602001906001900390816104c35790505b50905060005b60045481101561074157600080828152602001908152602001600020604051806101000160405290816000820160009054906101000a900460ff161515151581526020016000820160019054906101000a900473ffffffffffffffffffffffffffffffffffffffff1673ffffffffffffffffffffffffffffffffffffffff1673ffffffffffffffffffffffffffffffffffffffff16815260200160018201548152602001600282015481526020016003820180546105a190613287565b80601f01602080910402602001604051908101604052809291908181526020018280546105cd90613287565b801561061a5780601f106105ef5761010080835404028352916020019161061a565b820191906000526020600020905b8154815290600101906020018083116105fd57829003601f168201915b5050505050815260200160048201805480602002602001604051908101604052809291908181526020016000905b828210156106f457838290600052602060002001805461066790613287565b80601f016020809104026020016040519081016040528092919081815260200182805461069390613287565b80156106e05780601f106106b5576101008083540402835291602001916106e0565b820191906000526020600020905b8154815290600101906020018083116106c357829003601f168201915b505050505081526020019060010190610648565b50505050815260200160058201548152602001600682015481525050828281518110610723576107226133c0565b5b60200260200101819052508080610739906132ea565b9150506104e4565b508091505090565b6107516122c9565b600080838152602001908152602001600020604051806101000160405290816000820160009054906101000a900460ff161515151581526020016000820160019054906101000a900473ffffffffffffffffffffffffffffffffffffffff1673ffffffffffffffffffffffffffffffffffffffff1673ffffffffffffffffffffffffffffffffffffffff168152602001600182015481526020016002820154815260200160038201805461080490613287565b80601f016020809104026020016040519081016040528092919081815260200182805461083090613287565b801561087d5780601f106108525761010080835404028352916020019161087d565b820191906000526020600020905b81548152906001019060200180831161086057829003601f168201915b5050505050815260200160048201805480602002602001604051908101604052809291908181526020016000905b828210156109575783829060005260206000200180546108ca90613287565b80601f01602080910402602001604051908101604052809291908181526020018280546108f690613287565b80156109435780601f1061091857610100808354040283529160200191610943565b820191906000526020600020905b81548152906001019060200180831161092657829003601f168201915b5050505050815260200190600101906108ab565b505050508152602001600582015481526020016006820154815250509050919050565b606060006002600084815260200190815260200160002060010154905060008167ffffffffffffffff8111156109b3576109b26133ef565b5b6040519080825280602002602001820160405280156109ec57816020015b6109d9612326565b8152602001906001900390816109d15790505b50905060005b82811015610ac7576002600086815260200190815260200160002060000160008281526020019081526020016000206040518060600160405290816000820160009054906101000a900473ffffffffffffffffffffffffffffffffffffffff1673ffffffffffffffffffffffffffffffffffffffff1673ffffffffffffffffffffffffffffffffffffffff16815260200160018201548152602001600282015481525050828281518110610aa957610aa86133c0565b5b60200260200101819052508080610abf906132ea565b9150506109f2565b508092505050919050565b60026020528060005260406000206000915090508060010154905081565b610af86122c9565b60004290506040518061010001604052806001151581526020013373ffffffffffffffffffffffffffffffffffffffff168152602001348152602001868152602001858152602001600067ffffffffffffffff811115610b5b57610b5a6133ef565b5b604051908082528060200260200182016040528015610b8e57816020015b6060815260200190600190039081610b795790505b5081526020018281526020018483610ba691906130e8565b815250600080600454815260200190815260200160002060008201518160000160006101000a81548160ff02191690831515021790555060208201518160000160016101000a81548173ffffffffffffffffffffffffffffffffffffffff021916908373ffffffffffffffffffffffffffffffffffffffff16021790555060408201518160010155606082015181600201556080820151816003019080519060200190610c5492919061235d565b5060a0820151816004019080519060200190610c719291906123e3565b5060c0820151816005015560e082015181600601559050506001600454610c9891906130e8565b6004819055506000806001600454610cb091906131c9565b8152602001908152602001600020604051806101000160405290816000820160009054906101000a900460ff161515151581526020016000820160019054906101000a900473ffffffffffffffffffffffffffffffffffffffff1673ffffffffffffffffffffffffffffffffffffffff1673ffffffffffffffffffffffffffffffffffffffff1681526020016001820154815260200160028201548152602001600382018054610d5f90613287565b80601f0160208091040260200160405190810160405280929190818152602001828054610d8b90613287565b8015610dd85780601f10610dad57610100808354040283529160200191610dd8565b820191906000526020600020905b815481529060010190602001808311610dbb57829003601f168201915b5050505050815260200160048201805480602002602001604051908101604052809291908181526020016000905b82821015610eb2578382906000526020600020018054610e2590613287565b80601f0160208091040260200160405190810160405280929190818152602001828054610e5190613287565b8015610e9e5780601f10610e7357610100808354040283529160200191610e9e565b820191906000526020600020905b815481529060010190602001808311610e8157829003601f168201915b505050505081526020019060010190610e06565b505050508152602001600582015481526020016006820154815250509150509392505050565b6004548210610ee657600080fd5b60008083815260200190815260200160002060000160009054906101000a900460ff16610f1257600080fd5b600080838152602001908152602001600020600401805490508110610f3657600080fd5b600080838152602001908152602001600020600201543414610f5757600080fd5b6000808381526020019081526020016000206005015442118015610f8f57506000808381526020019081526020016000206006015442105b610f9857600080fd5b6003600083815260200190815260200160002060000160003373ffffffffffffffffffffffffffffffffffffffff1673ffffffffffffffffffffffffffffffffffffffff16815260200190815260200160002060009054906101000a900460ff161561100357600080fd5b600060016000848152602001908152602001600020905060008160010154905060405180604001604052803373ffffffffffffffffffffffffffffffffffffffff1681526020018481525082600001600083815260200190815260200160002060008201518160000160006101000a81548173ffffffffffffffffffffffffffffffffffffffff021916908373ffffffffffffffffffffffffffffffffffffffff16021790555060208201518160010155905050600182600101546110c891906130e8565b826001018190555060016003600086815260200190815260200160002060000160003373ffffffffffffffffffffffffffffffffffffffff1673ffffffffffffffffffffffffffffffffffffffff16815260200190815260200160002060006101000a81548160ff02191690831515021790555050505050565b600454821061115057600080fd5b60008083815260200190815260200160002060000160009054906101000a900460ff1661117c57600080fd5b6000808381526020019081526020016000206004018054905081106111a057600080fd5b60008083815260200190815260200160002060050154421180156111d857506000808381526020019081526020016000206006015442105b6111e157600080fd5b6003600083815260200190815260200160002060000160003373ffffffffffffffffffffffffffffffffffffffff1673ffffffffffffffffffffffffffffffffffffffff16815260200190815260200160002060009054906101000a900460ff161561124c57600080fd5b600060026000848152602001908152602001600020905060008160010154905060405180606001604052803373ffffffffffffffffffffffffffffffffffffffff1681526020018481526020013481525082600001600083815260200190815260200160002060008201518160000160006101000a81548173ffffffffffffffffffffffffffffffffffffffff021916908373ffffffffffffffffffffffffffffffffffffffff16021790555060208201518160010155604082015181600201559050506001826001015461132191906130e8565b826001018190555060016003600086815260200190815260200160002060000160003373ffffffffffffffffffffffffffffffffffffffff1673ffffffffffffffffffffffffffffffffffffffff16815260200190815260200160002060006101000a81548160ff02191690831515021790555050505050565b606060008060008481526020019081526020016000206004018054905067ffffffffffffffff8111156113d1576113d06133ef565b5b6040519080825280602002602001820160405280156113ff5781602001602082028036833780820191505090505b5090506000600160008581526020019081526020016000206000019050611424612443565b60005b600160008781526020019081526020016000206001015481101561150b578260008281526020019081526020016000206040518060400160405290816000820160009054906101000a900473ffffffffffffffffffffffffffffffffffffffff1673ffffffffffffffffffffffffffffffffffffffff1673ffffffffffffffffffffffffffffffffffffffff16815260200160018201548152505091506001848360200151815181106114dd576114dc6133c0565b5b602002602001018181516114f191906130e8565b915081815250508080611503906132ea565b915050611427565b50829350505050919050565b60016020528060005260406000206000915090508060010154905081565b6060600080838152602001908152602001600020600401805480602002602001604051908101604052809291908181526020016000905b8282101561161857838290600052602060002001805461158b90613287565b80601f01602080910402602001604051908101604052809291908181526020018280546115b790613287565b80156116045780601f106115d957610100808354040283529160200191611604565b820191906000526020600020905b8154815290600101906020018083116115e757829003601f168201915b50505050508152602001906001019061156c565b505050509050919050565b60008082815260200190815260200160002060000160019054906101000a900473ffffffffffffffffffffffffffffffffffffffff1673ffffffffffffffffffffffffffffffffffffffff163373ffffffffffffffffffffffffffffffffffffffff161461169057600080fd5b60008082815260200190815260200160002060000160009054906101000a900460ff166116bc57600080fd5b6000808281526020019081526020016000206006015442116116dd57600080fd5b606060008060006116ed856119ab565b8096508194508295505050506000600a60088561170a919061316f565b611714919061313e565b905061172286828588611e46565b809450819350505081818561173791906131c9565b61174191906130e8565b93506000600285611752919061313e565b9050611760878286896120c0565b809550819450505082818661177591906131c9565b61177f91906130e8565b94506000858561178f91906130e8565b905060008060008a815260200190815260200160002060000160019054906101000a900473ffffffffffffffffffffffffffffffffffffffff1690506000808273ffffffffffffffffffffffffffffffffffffffff16846040516117f290612d01565b60006040518083038185875af1925050503d806000811461182f576040519150601f19603f3d011682016040523d82523d6000602084013e611834565b606091505b509150915081611879576040517f08c379a000000000000000000000000000000000000000000000000000000000815260040161187090612e58565b60405180910390fd5b60008060008d815260200190815260200160002060000160006101000a81548160ff0219169083151502179055505050505050505050505050565b60006020528060005260406000206000915090508060000160009054906101000a900460ff16908060000160019054906101000a900473ffffffffffffffffffffffffffffffffffffffff169080600101549080600201549080600301805461191c90613287565b80601f016020809104026020016040519081016040528092919081815260200182805461194890613287565b80156119955780601f1061196a57610100808354040283529160200191611995565b820191906000526020600020905b81548152906001019060200180831161197857829003601f168201915b5050505050908060050154908060060154905087565b600080606060006119bb85611afc565b9050600060026000878152602001908152602001600020600001905060008080600089815260200190815260200160002060020154600160008a815260200190815260200160002060010154611a11919061316f565b6000808a815260200190815260200160002060010154611a3191906130e8565b905060005b600260008a815260200190815260200160002060010154811015611ae757848460008381526020019081526020016000206001015481518110611a7c57611a7b6133c0565b5b6020026020010151611ab0578360008281526020019081526020016000206002015483611aa991906130e8565b9250611ad4565b8360008281526020019081526020016000206002015482611ad191906130e8565b91505b8080611adf906132ea565b915050611a36565b50818185965096509650505050509193909250565b606060008060008481526020019081526020016000206004018054905067ffffffffffffffff811115611b3257611b316133ef565b5b604051908082528060200260200182016040528015611b605781602001602082028036833780820191505090505b5090506000611b6e8461139b565b90506000805b8251811015611bd05781838281518110611b9157611b906133c0565b5b60200260200101511115611bbd57828181518110611bb257611bb16133c0565b5b602002602001015191505b8080611bc8906132ea565b915050611b74565b5060005b8251811015611c3a5781838281518110611bf157611bf06133c0565b5b60200260200101511415611c27576001848281518110611c1457611c136133c0565b5b6020026020010190151590811515815250505b8080611c32906132ea565b915050611bd4565b50829350505050919050565b600080600084815260200190815260200160002090508060000160019054906101000a900473ffffffffffffffffffffffffffffffffffffffff1673ffffffffffffffffffffffffffffffffffffffff163373ffffffffffffffffffffffffffffffffffffffff161415611cf3578060040182908060018154018082558091505060019003906000526020600020016000909190919091509080519060200190611cf192919061235d565b505b505050565b606060006001600084815260200190815260200160002060010154905060008167ffffffffffffffff811115611d3157611d306133ef565b5b604051908082528060200260200182016040528015611d6a57816020015b611d57612443565b815260200190600190039081611d4f5790505b50905060005b82811015611e3b576001600086815260200190815260200160002060000160008281526020019081526020016000206040518060400160405290816000820160009054906101000a900473ffffffffffffffffffffffffffffffffffffffff1673ffffffffffffffffffffffffffffffffffffffff1673ffffffffffffffffffffffffffffffffffffffff168152602001600182015481525050828281518110611e1d57611e1c6133c0565b5b60200260200101819052508080611e33906132ea565b915050611d70565b508092505050919050565b600080600060026000888152602001908152602001600020600001905060008060008060008b8152602001908152602001600020600101546000808c815260200190815260200160002060020154600160008d815260200190815260200160002060010154611eb5919061316f565b89611ec091906131c9565b611eca91906131c9565b90506000899050600080600090505b600260008e8152602001908152602001600020600101548110156120aa57898760008381526020019081526020016000206001015481518110611f1f57611f1e6133c0565b5b60200260200101511561209757838760008381526020019081526020016000206002015484611f4e919061316f565b611f58919061313e565b94508487600083815260200190815260200160002060020154611f7b91906130e8565b9550866000828152602001908152602001600020600201548b611f9e91906131c9565b9a50848c611fac91906131c9565b9b5086600082815260200190815260200160002060000160009054906101000a900473ffffffffffffffffffffffffffffffffffffffff1691506000808373ffffffffffffffffffffffffffffffffffffffff168860405161200d90612d01565b60006040518083038185875af1925050503d806000811461204a576040519150601f19603f3d011682016040523d82523d6000602084013e61204f565b606091505b509150915081612094576040517f08c379a000000000000000000000000000000000000000000000000000000000815260040161208b90612e58565b60405180910390fd5b50505b80806120a2906132ea565b915050611ed9565b508a8a9750975050505050505094509492505050565b60008060006001600088815260200190815260200160002060000190506000806000889050600080600090505b600160008d8152602001908152602001600020600101548110156122b457888660008381526020019081526020016000206001015481518110612133576121326133c0565b5b6020026020010151156122a157600160008d81526020019081526020016000206001015483612162919061313e565b9350836000808e81526020019081526020016000206002015461218591906130e8565b94506000808d8152602001908152602001600020600201548a6121a891906131c9565b9950838b6121b691906131c9565b9a5085600082815260200190815260200160002060000160009054906101000a900473ffffffffffffffffffffffffffffffffffffffff1691506000808373ffffffffffffffffffffffffffffffffffffffff168760405161221790612d01565b60006040518083038185875af1925050503d8060008114612254576040519150601f19603f3d011682016040523d82523d6000602084013e612259565b606091505b50915091508161229e576040517f08c379a000000000000000000000000000000000000000000000000000000000815260040161229590612e58565b60405180910390fd5b50505b80806122ac906132ea565b9150506120ed565b50898996509650505050505094509492505050565b604051806101000160405280600015158152602001600073ffffffffffffffffffffffffffffffffffffffff1681526020016000815260200160008152602001606081526020016060815260200160008152602001600081525090565b6040518060600160405280600073ffffffffffffffffffffffffffffffffffffffff16815260200160008152602001600081525090565b82805461236990613287565b90600052602060002090601f01602090048101928261238b57600085556123d2565b82601f106123a457805160ff19168380011785556123d2565b828001600101855582156123d2579182015b828111156123d15782518255916020019190600101906123b6565b5b5090506123df9190612473565b5090565b828054828255906000526020600020908101928215612432579160200282015b8281111561243157825182908051906020019061242192919061235d565b5091602001919060010190612403565b5b50905061243f9190612490565b5090565b6040518060400160405280600073ffffffffffffffffffffffffffffffffffffffff168152602001600081525090565b5b8082111561248c576000816000905550600101612474565b5090565b5b808211156124b057600081816124a791906124b4565b50600101612491565b5090565b5080546124c090613287565b6000825580601f106124d257506124f1565b601f0160209004906000526020600020908101906124f09190612473565b5b50565b600061250761250284612f18565b612ef3565b90508281526020810184848401111561252357612522613423565b5b61252e848285613245565b509392505050565b600082601f83011261254b5761254a61341e565b5b813561255b8482602086016124f4565b91505092915050565b6000813590506125738161346f565b92915050565b60006020828403121561258f5761258e61342d565b5b600061259d84828501612564565b91505092915050565b600080604083850312156125bd576125bc61342d565b5b60006125cb85828601612564565b925050602083013567ffffffffffffffff8111156125ec576125eb613428565b5b6125f885828601612536565b9150509250929050565b60008060006060848603121561261b5761261a61342d565b5b600061262986828701612564565b935050602084013567ffffffffffffffff81111561264a57612649613428565b5b61265686828701612536565b925050604061266786828701612564565b9150509250925092565b600080604083850312156126885761268761342d565b5b600061269685828601612564565b92505060206126a785828601612564565b9150509250929050565b60006126bd8383612a2e565b60208301905092915050565b60006126d58383612a4c565b905092915050565b60006126e98383612b04565b60608301905092915050565b60006127018383612b46565b905092915050565b60006127158383612cb4565b60408301905092915050565b600061272d8383612ce3565b60208301905092915050565b612742816131fd565b82525050565b612751816131fd565b82525050565b600061276282612fa9565b61276c8185613044565b935061277783612f49565b8060005b838110156127a857815161278f88826126b1565b975061279a83612ff6565b92505060018101905061277b565b5085935050505092915050565b60006127c082612fb4565b6127ca8185613055565b9350836020820285016127dc85612f59565b8060005b8581101561281857848403895281516127f985826126c9565b945061280483613003565b925060208a019950506001810190506127e0565b50829750879550505050505092915050565b600061283582612fb4565b61283f8185613066565b93508360208202850161285185612f59565b8060005b8581101561288d578484038952815161286e85826126c9565b945061287983613003565b925060208a01995050600181019050612855565b50829750879550505050505092915050565b60006128aa82612fbf565b6128b48185613077565b93506128bf83612f69565b8060005b838110156128f05781516128d788826126dd565b97506128e283613010565b9250506001810190506128c3565b5085935050505092915050565b600061290882612fca565b6129128185613088565b93508360208202850161292485612f79565b8060005b85811015612960578484038952815161294185826126f5565b945061294c8361301d565b925060208a01995050600181019050612928565b50829750879550505050505092915050565b600061297d82612fd5565b6129878185613099565b935061299283612f89565b8060005b838110156129c35781516129aa8882612709565b97506129b58361302a565b925050600181019050612996565b5085935050505092915050565b60006129db82612fe0565b6129e581856130aa565b93506129f083612f99565b8060005b83811015612a21578151612a088882612721565b9750612a1383613037565b9250506001810190506129f4565b5085935050505092915050565b612a378161320f565b82525050565b612a468161320f565b82525050565b6000612a5782612feb565b612a6181856130c6565b9350612a71818560208601613254565b612a7a81613432565b840191505092915050565b6000612a9082612feb565b612a9a81856130d7565b9350612aaa818560208601613254565b612ab381613432565b840191505092915050565b6000612acb6014836130d7565b9150612ad682613443565b602082019050919050565b6000612aee6000836130bb565b9150612af98261346c565b600082019050919050565b606082016000820151612b1a6000850182612739565b506020820151612b2d6020850182612ce3565b506040820151612b406040850182612ce3565b50505050565b600061010083016000830151612b5f6000860182612a2e565b506020830151612b726020860182612739565b506040830151612b856040860182612ce3565b506060830151612b986060860182612ce3565b5060808301518482036080860152612bb08282612a4c565b91505060a083015184820360a0860152612bca82826127b5565b91505060c0830151612bdf60c0860182612ce3565b5060e0830151612bf260e0860182612ce3565b508091505092915050565b600061010083016000830151612c166000860182612a2e565b506020830151612c296020860182612739565b506040830151612c3c6040860182612ce3565b506060830151612c4f6060860182612ce3565b5060808301518482036080860152612c678282612a4c565b91505060a083015184820360a0860152612c8182826127b5565b91505060c0830151612c9660c0860182612ce3565b5060e0830151612ca960e0860182612ce3565b508091505092915050565b604082016000820151612cca6000850182612739565b506020820151612cdd6020850182612ce3565b50505050565b612cec8161323b565b82525050565b612cfb8161323b565b82525050565b6000612d0c82612ae1565b9150819050919050565b60006020820190508181036000830152612d308184612757565b905092915050565b60006020820190508181036000830152612d52818461282a565b905092915050565b60006020820190508181036000830152612d74818461289f565b905092915050565b60006020820190508181036000830152612d9681846128fd565b905092915050565b60006020820190508181036000830152612db88184612972565b905092915050565b60006020820190508181036000830152612dda81846129d0565b905092915050565b600060e082019050612df7600083018a612a3d565b612e046020830189612748565b612e116040830188612cf2565b612e1e6060830187612cf2565b8181036080830152612e308186612a85565b9050612e3f60a0830185612cf2565b612e4c60c0830184612cf2565b98975050505050505050565b60006020820190508181036000830152612e7181612abe565b9050919050565b60006020820190508181036000830152612e928184612bfd565b905092915050565b6000602082019050612eaf6000830184612cf2565b92915050565b6000606082019050612eca6000830186612cf2565b612ed76020830185612cf2565b8181036040830152612ee98184612757565b9050949350505050565b6000612efd612f0e565b9050612f0982826132b9565b919050565b6000604051905090565b600067ffffffffffffffff821115612f3357612f326133ef565b5b612f3c82613432565b9050602081019050919050565b6000819050602082019050919050565b6000819050602082019050919050565b6000819050602082019050919050565b6000819050602082019050919050565b6000819050602082019050919050565b6000819050602082019050919050565b600081519050919050565b600081519050919050565b600081519050919050565b600081519050919050565b600081519050919050565b600081519050919050565b600081519050919050565b6000602082019050919050565b6000602082019050919050565b6000602082019050919050565b6000602082019050919050565b6000602082019050919050565b6000602082019050919050565b600082825260208201905092915050565b600082825260208201905092915050565b600082825260208201905092915050565b600082825260208201905092915050565b600082825260208201905092915050565b600082825260208201905092915050565b600082825260208201905092915050565b600081905092915050565b600082825260208201905092915050565b600082825260208201905092915050565b60006130f38261323b565b91506130fe8361323b565b9250827fffffffffffffffffffffffffffffffffffffffffffffffffffffffffffffffff0382111561313357613132613333565b5b828201905092915050565b60006131498261323b565b91506131548361323b565b92508261316457613163613362565b5b828204905092915050565b600061317a8261323b565b91506131858361323b565b9250817fffffffffffffffffffffffffffffffffffffffffffffffffffffffffffffffff04831182151516156131be576131bd613333565b5b828202905092915050565b60006131d48261323b565b91506131df8361323b565b9250828210156131f2576131f1613333565b5b828203905092915050565b60006132088261321b565b9050919050565b60008115159050919050565b600073ffffffffffffffffffffffffffffffffffffffff82169050919050565b6000819050919050565b82818337600083830152505050565b60005b83811015613272578082015181840152602081019050613257565b83811115613281576000848401525b50505050565b6000600282049050600182168061329f57607f821691505b602082108114156132b3576132b2613391565b5b50919050565b6132c282613432565b810181811067ffffffffffffffff821117156132e1576132e06133ef565b5b80604052505050565b60006132f58261323b565b91507fffffffffffffffffffffffffffffffffffffffffffffffffffffffffffffffff82141561332857613327613333565b5b600182019050919050565b7f4e487b7100000000000000000000000000000000000000000000000000000000600052601160045260246000fd5b7f4e487b7100000000000000000000000000000000000000000000000000000000600052601260045260246000fd5b7f4e487b7100000000000000000000000000000000000000000000000000000000600052602260045260246000fd5b7f4e487b7100000000000000000000000000000000000000000000000000000000600052603260045260246000fd5b7f4e487b7100000000000000000000000000000000000000000000000000000000600052604160045260246000fd5b600080fd5b600080fd5b600080fd5b600080fd5b6000601f19601f8301169050919050565b7f4661696c656420746f2073656e64204574686572000000000000000000000000600082015250565b50565b6134788161323b565b811461348357600080fd5b5056fea26469706673582212201f9b607af9d82ec37b69d74be4e92d4b6f28f150745d3dbbe1c7c8924753683d64736f6c63430008070033",
  "immutableReferences": {},
  "source": "pragma solidity ^0.8.7;\n \ncontract ACME {\n\n    struct Poll // Enquete\n    {\n        bool open;\n        address creator; // Criador da enquete\n        uint initial_amount; // Montante inicial na enquete\n        uint vote_fee; // Taxa de voto\n        string question; // A pergunta da enquete\n        string[] options; // As opes de resposta\n        uint time_start; // Timestamp de incio\n        uint time_end; // Timestamp de fim\n    }\n\n    struct Vote // Voto\n    {\n        address voter; // Usurio eleitor\n        uint id_option; // Opo em que o usurio votou\n    }\n\n    struct Bet // Aposta\n    {\n        address better; // Usurio apostador\n        uint id_option; // Opo em que o usurio apostou\n        uint value; // Valor da aposta\n    }\n\n\n    // Estruturas especficas para permitir o armazenamento\n    struct VoteStorage {\n        mapping(uint => Vote) stored_votes;\n        uint n_votes;\n    }\n\n    struct BetStorage {\n        mapping(uint => Bet) stored_bets;\n        uint n_bets;\n    }\n\n    struct ParticipantsRecord {\n        mapping(address => bool) participants;\n    }\n\n    mapping(uint => Poll) public polls;\n    mapping(uint => VoteStorage) public votes;\n    mapping(uint => BetStorage) public bets;\n    mapping(uint => ParticipantsRecord) private participations;\n    uint n_polls = 0; // o identificador das enquetes  um contador\n\n\n    function createPoll(uint _vote_fee, string memory _question, uint _valid_period) public payable \n        returns (Poll memory) {\n        uint ts = block.timestamp;\n        polls[n_polls] = Poll({open: true, creator: msg.sender, initial_amount: msg.value, vote_fee: _vote_fee, question: _question,\n                               options: new string[](0), time_start: ts, time_end: ts + _valid_period});\n        n_polls = n_polls + 1;\n        return polls[n_polls - 1];\n    }\n\n\n    function getPoll(uint _id) public view\n        returns (Poll memory) {\n        return polls[_id];\n    }\n\n    function getPolls() public view \n        returns (Poll[] memory) {\n        Poll[] memory current_polls = new Poll[](n_polls);\n\n        for (uint i = 0; i < n_polls; i++) {\n            current_polls[i] = polls[i];\n        }\n\n        return current_polls;\n    }\n\n\n    function addOption(uint _id, string memory _option) public {\n        Poll storage poll = polls[_id];\n        if (msg.sender == poll.creator) {\n            poll.options.push(_option);\n        }\n    }\n\n\n    function getOptions(uint _id) public view\n        returns (string[] memory) {\n        return polls[_id].options;\n    }\n\n\n    function castVote(uint _id_poll, uint _id_option) public payable {\n        require(_id_poll < n_polls);                                // enquete existe\n        require(polls[_id_poll].open);                              // enquete aberta\n        require(_id_option < polls[_id_poll].options.length);       // opo de resposta existe\n        require(msg.value == polls[_id_poll].vote_fee);             // pagando a taxa para votos\n        require(block.timestamp > polls[_id_poll].time_start && block.timestamp < polls[_id_poll].time_end);\n                                                                    // voto no perodo de tempo aceitvel\n        require(!participations[_id_poll].participants[msg.sender]);// usurio no votou/apostou\n\n        VoteStorage storage vote_storage = votes[_id_poll];\n        uint idx = vote_storage.n_votes;\n        vote_storage.stored_votes[idx] = Vote({voter: msg.sender, id_option: _id_option});\n        vote_storage.n_votes = vote_storage.n_votes + 1;\n\n        participations[_id_poll].participants[msg.sender] = true;\n    }\n\n\n    function getVotes(uint _id_poll) public view \n        returns (Vote[] memory) {\n\n        uint n_votes = votes[_id_poll].n_votes;\n        Vote[] memory vote_result = new Vote[](n_votes);\n\n        for (uint i = 0; i < n_votes; i++) {\n            vote_result[i] = votes[_id_poll].stored_votes[i];\n        }\n\n        return vote_result;\n    }\n\n\n    function placeBet(uint _id_poll, uint _id_option) \n        public payable {\n        require(_id_poll < n_polls);                                // enquete existe\n        require(polls[_id_poll].open);                              // enquete aberta\n        require(_id_option < polls[_id_poll].options.length);       // opo de resposta existe\n        require(block.timestamp > polls[_id_poll].time_start && block.timestamp < polls[_id_poll].time_end);\n                                                                    // aposta no periodo aceitvel\n        require(!participations[_id_poll].participants[msg.sender]);// usurio no votou/apostou ainda\n\n        BetStorage storage bet_storage = bets[_id_poll];\n        uint idx = bet_storage.n_bets;\n        bet_storage.stored_bets[idx] = Bet({better: msg.sender, id_option: _id_option, value: msg.value});\n        bet_storage.n_bets = bet_storage.n_bets + 1;\n\n        participations[_id_poll].participants[msg.sender] = true;\n    }\n\n\n    function getBets(uint _id_poll) public view \n        returns (Bet[] memory) {\n \n        uint n_bets = bets[_id_poll].n_bets;\n        Bet[] memory bets_array = new Bet[](n_bets);\n\n        for (uint i = 0; i < n_bets; i++) {\n            bets_array[i] = bets[_id_poll].stored_bets[i];\n        }\n\n        return bets_array;\n    }\n\n\n    // Calcula os votos para cada opo\n    function tallyVotes(uint _id_poll) public view \n        returns (uint[] memory) {\n        uint[] memory votes_total = new uint[](polls[_id_poll].options.length);\n        mapping(uint => Vote) storage votes_in_storage = votes[_id_poll].stored_votes;\n        Vote memory vote;\n\n        for (uint i = 0; i < votes[_id_poll].n_votes; i++) {\n            vote = votes_in_storage[i];\n            votes_total[vote.id_option] += 1;\n        }\n\n        return votes_total;\n    }\n\n    // Resultado da enquete\n    // Retorna um array de booleanos, em que uma posio  true\n    // se a opo correspondente tem o nmero mximo de votos\n    function getPollResult(uint _id_poll) public view \n        returns (bool[] memory) {\n        bool[] memory result = new bool[](polls[_id_poll].options.length);\n\n        uint[] memory votes_total = tallyVotes(_id_poll);\n\n        uint max = 0;\n\n        for (uint i = 0; i < votes_total.length; i++) {\n            if (votes_total[i] > max) {\n                max = votes_total[i];\n            }\n        }\n        for (uint i = 0; i < votes_total.length; i++) {\n            if (votes_total[i] == max) {\n                result[i] = true;\n            }\n        }\n\n        return result;\n    }\n\n\n    function computePrizes(uint _id_poll) public view \n        returns (uint, uint, bool[] memory) {\n        bool[] memory result = getPollResult(_id_poll);\n\n        mapping(uint => Bet) storage bets_in_storage = bets[_id_poll].stored_bets;\n\n        // dinheiro dos perdedores, que ser embolsado pelos outros participantes\n        uint prize_money = 0; \n\n        // dinheiro a ser reembolsado (inicial + taxas dos votos + apostas dos vencedores)\n        uint refund_money = polls[_id_poll].initial_amount + votes[_id_poll].n_votes * polls[_id_poll].vote_fee;\n\n        for (uint i = 0; i < bets[_id_poll].n_bets; i++) {\n            if (!result[bets_in_storage[i].id_option]) {\n                prize_money += bets_in_storage[i].value;\n            } else {\n                refund_money += bets_in_storage[i].value;\n            }\n        }\n\n        return (prize_money, refund_money, result);\n    }\n\n\n    function payReward(uint _id_poll, uint prize_money, uint refund_money, bool[] memory result) private \n        returns (uint, uint) {\n\n        mapping(uint => Bet) storage bets_in_storage = bets[_id_poll].stored_bets;\n        uint value_to_transfer;\n        uint reward;\n\n        // Queremos que os que apostaram mais sejam mais recompensados\n        // total_bet_winners  o total apostado pelos vencedores\n        uint total_bet_winners = refund_money - votes[_id_poll].n_votes * polls[_id_poll].vote_fee - polls[_id_poll].initial_amount;\n\n        uint total_prize_money = prize_money;\n        address payable to;\n\n        for (uint i = 0; i < bets[_id_poll].n_bets; i++) {\n            if (result[bets_in_storage[i].id_option]) {\n                // Os vencedores recebem a aposta de volta, mais um valor de total_prize_money,\n                // proporcional ao que apostaram\n                reward = (total_prize_money * bets_in_storage[i].value) / total_bet_winners;\n                value_to_transfer = bets_in_storage[i].value + reward;\n\n                refund_money -= bets_in_storage[i].value;\n                prize_money -= reward;\n\n                // Mandando para cada um dos apostadores\n                to = payable(bets_in_storage[i].better);\n                (bool sent, bytes memory data) = to.call{value: value_to_transfer}(\"\");\n                require(sent, \"Failed to send Ether\");\n            }\n        }\n\n        return (prize_money, refund_money);\n    }\n\n\n    function payVoters(uint _id_poll, uint prize_money, uint refund_money, bool[] memory result) private\n        returns (uint, uint) {\n\n        mapping(uint => Vote) storage votes_in_storage = votes[_id_poll].stored_votes;\n        uint value_to_transfer;\n        uint reward;\n\n        uint total_prize_money = prize_money;\n        address payable to;\n\n        for (uint i = 0; i < votes[_id_poll].n_votes; i++) {\n            if (result[votes_in_storage[i].id_option]) {\n                // Os usurios que votaram simplesmente recebem o dinheiro de volta,\n                // mais um pouco do montante dos que perderam\n                reward = total_prize_money / votes[_id_poll].n_votes;\n                value_to_transfer = polls[_id_poll].vote_fee + reward;\n\n                refund_money -= polls[_id_poll].vote_fee;\n                prize_money -= reward;\n                \n                // Mandando para cada um dos eleitores\n                to = payable(votes_in_storage[i].voter);\n                (bool sent, bytes memory data) = to.call{value: value_to_transfer}(\"\");\n                require(sent, \"Failed to send Ether\");\n            }\n        }\n\n        return (prize_money, refund_money);\n    }\n\n    function closePoll(uint _id_poll) public {\n        require(msg.sender == polls[_id_poll].creator);\n        require(polls[_id_poll].open);\n        require(block.timestamp > polls[_id_poll].time_end);\n\n        bool[] memory result;\n\n        uint prize_money;\n        uint refund_money;\n        uint money_left;\n\n        (prize_money, refund_money, result) = computePrizes(_id_poll);\n\n        // Tomamos cuidado para que nenhum dinheiro se perca com as divises\n\n        uint bettors_cut = (prize_money * 8) / 10; // 80% do dinheiro prmio vai para os apostadores\n        (money_left, refund_money) = payReward(_id_poll, bettors_cut, refund_money, result);\n        prize_money = prize_money - bettors_cut + money_left;\n\n        uint voters_cut = (prize_money) / 2; // O resto (20%)  dividido entre os usurios que votaram e o criador\n        (money_left, refund_money) = payVoters(_id_poll, voters_cut, refund_money, result);\n        prize_money = prize_money - voters_cut + money_left;\n\n        uint creators_cut = refund_money + prize_money;\n\n        // Mandando para o criador\n        address to = payable(polls[_id_poll].creator);\n        (bool sent, bytes memory data) = to.call{value: creators_cut}(\"\");\n        require(sent, \"Failed to send Ether\");\n\n        polls[_id_poll].open = false;\n    }\n\n    \n    function getBalance() public view returns (uint) {\n        return address(this).balance;\n    }\n}\n",
  "sourcePath": "/home/hobs/Documents/CCO/2021_2/Cripto/acme/contracts/ACME.sol",
  "compiler": {
    "name": "solc",
    "version": "0.8.7+commit.e28d00a7.Emscripten.clang"
  },
  "schemaVersion": "3.4.6",
  "updatedAt": "2022-03-13T13:32:50.513Z",
  "devdoc": {
    "kind": "dev",
    "methods": {},
    "version": 1
  },
  "userdoc": {
    "kind": "user",
    "methods": {},
    "version": 1
  }
}